{
  "_format": "hh-sol-artifact-1",
  "contractName": "BoostNFT",
  "sourceName": "contracts/BoostNFT.sol",
  "abi": [
    {
      "inputs": [],
      "stateMutability": "nonpayable",
      "type": "constructor"
    },
    {
      "anonymous": false,
      "inputs": [
        {
          "indexed": false,
          "internalType": "address",
          "name": "previousAdmin",
          "type": "address"
        },
        {
          "indexed": false,
          "internalType": "address",
          "name": "newAdmin",
          "type": "address"
        }
      ],
      "name": "AdminChanged",
      "type": "event"
    },
    {
      "anonymous": false,
      "inputs": [
        {
          "indexed": true,
          "internalType": "address",
          "name": "owner",
          "type": "address"
        },
        {
          "indexed": true,
          "internalType": "address",
          "name": "approved",
          "type": "address"
        },
        {
          "indexed": true,
          "internalType": "uint256",
          "name": "tokenId",
          "type": "uint256"
        }
      ],
      "name": "Approval",
      "type": "event"
    },
    {
      "anonymous": false,
      "inputs": [
        {
          "indexed": true,
          "internalType": "address",
          "name": "owner",
          "type": "address"
        },
        {
          "indexed": true,
          "internalType": "address",
          "name": "operator",
          "type": "address"
        },
        {
          "indexed": false,
          "internalType": "bool",
          "name": "approved",
          "type": "bool"
        }
      ],
      "name": "ApprovalForAll",
      "type": "event"
    },
    {
      "anonymous": false,
      "inputs": [
        {
          "indexed": true,
          "internalType": "address",
          "name": "beacon",
          "type": "address"
        }
      ],
      "name": "BeaconUpgraded",
      "type": "event"
    },
    {
      "anonymous": false,
      "inputs": [
        {
          "indexed": false,
          "internalType": "uint8",
          "name": "version",
          "type": "uint8"
        }
      ],
      "name": "Initialized",
      "type": "event"
    },
    {
      "anonymous": false,
      "inputs": [
        {
          "indexed": false,
          "internalType": "address",
          "name": "account",
          "type": "address"
        }
      ],
      "name": "Paused",
      "type": "event"
    },
    {
      "anonymous": false,
      "inputs": [
        {
          "indexed": true,
          "internalType": "bytes32",
          "name": "role",
          "type": "bytes32"
        },
        {
          "indexed": true,
          "internalType": "bytes32",
          "name": "previousAdminRole",
          "type": "bytes32"
        },
        {
          "indexed": true,
          "internalType": "bytes32",
          "name": "newAdminRole",
          "type": "bytes32"
        }
      ],
      "name": "RoleAdminChanged",
      "type": "event"
    },
    {
      "anonymous": false,
      "inputs": [
        {
          "indexed": true,
          "internalType": "bytes32",
          "name": "role",
          "type": "bytes32"
        },
        {
          "indexed": true,
          "internalType": "address",
          "name": "account",
          "type": "address"
        },
        {
          "indexed": true,
          "internalType": "address",
          "name": "sender",
          "type": "address"
        }
      ],
      "name": "RoleGranted",
      "type": "event"
    },
    {
      "anonymous": false,
      "inputs": [
        {
          "indexed": true,
          "internalType": "bytes32",
          "name": "role",
          "type": "bytes32"
        },
        {
          "indexed": true,
          "internalType": "address",
          "name": "account",
          "type": "address"
        },
        {
          "indexed": true,
          "internalType": "address",
          "name": "sender",
          "type": "address"
        }
      ],
      "name": "RoleRevoked",
      "type": "event"
    },
    {
      "anonymous": false,
      "inputs": [
        {
          "indexed": true,
          "internalType": "address",
          "name": "from",
          "type": "address"
        },
        {
          "indexed": true,
          "internalType": "address",
          "name": "to",
          "type": "address"
        },
        {
          "indexed": true,
          "internalType": "uint256",
          "name": "tokenId",
          "type": "uint256"
        }
      ],
      "name": "Transfer",
      "type": "event"
    },
    {
      "anonymous": false,
      "inputs": [
        {
          "indexed": false,
          "internalType": "address",
          "name": "account",
          "type": "address"
        }
      ],
      "name": "Unpaused",
      "type": "event"
    },
    {
      "anonymous": false,
      "inputs": [
        {
          "indexed": true,
          "internalType": "address",
          "name": "implementation",
          "type": "address"
        }
      ],
      "name": "Upgraded",
      "type": "event"
    },
    {
      "inputs": [],
      "name": "DEFAULT_ADMIN_ROLE",
      "outputs": [
        {
          "internalType": "bytes32",
          "name": "",
          "type": "bytes32"
        }
      ],
      "stateMutability": "view",
      "type": "function"
    },
    {
      "inputs": [],
      "name": "MINTER_ROLE",
      "outputs": [
        {
          "internalType": "bytes32",
          "name": "",
          "type": "bytes32"
        }
      ],
      "stateMutability": "view",
      "type": "function"
    },
    {
      "inputs": [],
      "name": "PAUSER_ROLE",
      "outputs": [
        {
          "internalType": "bytes32",
          "name": "",
          "type": "bytes32"
        }
      ],
      "stateMutability": "view",
      "type": "function"
    },
    {
      "inputs": [],
      "name": "UPGRADER_ROLE",
      "outputs": [
        {
          "internalType": "bytes32",
          "name": "",
          "type": "bytes32"
        }
      ],
      "stateMutability": "view",
      "type": "function"
    },
    {
      "inputs": [
        {
          "internalType": "address",
          "name": "userAddress",
          "type": "address"
        }
      ],
      "name": "addWhiteList",
      "outputs": [],
      "stateMutability": "nonpayable",
      "type": "function"
    },
    {
      "inputs": [
        {
          "internalType": "address",
          "name": "to",
          "type": "address"
        },
        {
          "internalType": "uint256",
          "name": "tokenId",
          "type": "uint256"
        }
      ],
      "name": "approve",
      "outputs": [],
      "stateMutability": "nonpayable",
      "type": "function"
    },
    {
      "inputs": [
        {
          "internalType": "address",
          "name": "owner",
          "type": "address"
        }
      ],
      "name": "balanceOf",
      "outputs": [
        {
          "internalType": "uint256",
          "name": "",
          "type": "uint256"
        }
      ],
      "stateMutability": "view",
      "type": "function"
    },
    {
      "inputs": [
        {
          "internalType": "uint256",
          "name": "tokenId",
          "type": "uint256"
        }
      ],
      "name": "burn",
      "outputs": [],
      "stateMutability": "nonpayable",
      "type": "function"
    },
    {
      "inputs": [
        {
          "internalType": "address",
          "name": "userAddress",
          "type": "address"
        }
      ],
      "name": "exists",
      "outputs": [
        {
          "internalType": "bool",
          "name": "",
          "type": "bool"
        }
      ],
      "stateMutability": "view",
      "type": "function"
    },
    {
      "inputs": [
        {
          "internalType": "uint256",
          "name": "tokenId",
          "type": "uint256"
        }
      ],
      "name": "getApproved",
      "outputs": [
        {
          "internalType": "address",
          "name": "",
          "type": "address"
        }
      ],
      "stateMutability": "view",
      "type": "function"
    },
    {
      "inputs": [
        {
          "internalType": "uint256",
          "name": "tokenId",
          "type": "uint256"
        }
      ],
      "name": "getData",
      "outputs": [
        {
          "components": [
            {
              "internalType": "uint8",
              "name": "level",
              "type": "uint8"
            },
            {
              "internalType": "uint8",
              "name": "rarity",
              "type": "uint8"
            },
            {
              "internalType": "uint256",
              "name": "metaId",
              "type": "uint256"
            },
            {
              "internalType": "bool",
              "name": "disabled",
              "type": "bool"
            }
          ],
          "internalType": "struct BoostNFT.Datas",
          "name": "",
          "type": "tuple"
        }
      ],
      "stateMutability": "view",
      "type": "function"
    },
    {
      "inputs": [
        {
          "internalType": "uint256",
          "name": "tokenId",
          "type": "uint256"
        }
      ],
      "name": "getMetadataId",
      "outputs": [
        {
          "internalType": "uint256",
          "name": "",
          "type": "uint256"
        }
      ],
      "stateMutability": "view",
      "type": "function"
    },
    {
      "inputs": [
        {
          "internalType": "bytes32",
          "name": "role",
          "type": "bytes32"
        }
      ],
      "name": "getRoleAdmin",
      "outputs": [
        {
          "internalType": "bytes32",
          "name": "",
          "type": "bytes32"
        }
      ],
      "stateMutability": "view",
      "type": "function"
    },
    {
      "inputs": [
        {
          "internalType": "bytes32",
          "name": "role",
          "type": "bytes32"
        },
        {
          "internalType": "uint256",
          "name": "index",
          "type": "uint256"
        }
      ],
      "name": "getRoleMember",
      "outputs": [
        {
          "internalType": "address",
          "name": "",
          "type": "address"
        }
      ],
      "stateMutability": "view",
      "type": "function"
    },
    {
      "inputs": [
        {
          "internalType": "bytes32",
          "name": "role",
          "type": "bytes32"
        }
      ],
      "name": "getRoleMemberCount",
      "outputs": [
        {
          "internalType": "uint256",
          "name": "",
          "type": "uint256"
        }
      ],
      "stateMutability": "view",
      "type": "function"
    },
    {
      "inputs": [
        {
          "internalType": "bytes32",
          "name": "role",
          "type": "bytes32"
        },
        {
          "internalType": "address",
          "name": "account",
          "type": "address"
        }
      ],
      "name": "grantRole",
      "outputs": [],
      "stateMutability": "nonpayable",
      "type": "function"
    },
    {
      "inputs": [
        {
          "internalType": "bytes32",
          "name": "role",
          "type": "bytes32"
        },
        {
          "internalType": "address",
          "name": "account",
          "type": "address"
        }
      ],
      "name": "hasRole",
      "outputs": [
        {
          "internalType": "bool",
          "name": "",
          "type": "bool"
        }
      ],
      "stateMutability": "view",
      "type": "function"
    },
    {
      "inputs": [],
      "name": "initialize",
      "outputs": [],
      "stateMutability": "nonpayable",
      "type": "function"
    },
    {
      "inputs": [
        {
          "internalType": "address",
          "name": "owner",
          "type": "address"
        },
        {
          "internalType": "address",
          "name": "operator",
          "type": "address"
        }
      ],
      "name": "isApprovedForAll",
      "outputs": [
        {
          "internalType": "bool",
          "name": "",
          "type": "bool"
        }
      ],
      "stateMutability": "view",
      "type": "function"
    },
    {
      "inputs": [
        {
          "internalType": "uint256",
          "name": "tokenId",
          "type": "uint256"
        },
        {
          "internalType": "uint8",
          "name": "step",
          "type": "uint8"
        }
      ],
      "name": "levelUp",
      "outputs": [],
      "stateMutability": "nonpayable",
      "type": "function"
    },
    {
      "inputs": [],
      "name": "locked",
      "outputs": [
        {
          "internalType": "bool",
          "name": "",
          "type": "bool"
        }
      ],
      "stateMutability": "view",
      "type": "function"
    },
    {
      "inputs": [
        {
          "internalType": "address",
          "name": "to",
          "type": "address"
        },
        {
          "internalType": "uint256[]",
          "name": "metaDataIds",
          "type": "uint256[]"
        }
      ],
      "name": "multiSafeMint",
      "outputs": [
        {
          "internalType": "uint256[]",
          "name": "",
          "type": "uint256[]"
        }
      ],
      "stateMutability": "payable",
      "type": "function"
    },
    {
      "inputs": [],
      "name": "name",
      "outputs": [
        {
          "internalType": "string",
          "name": "",
          "type": "string"
        }
      ],
      "stateMutability": "view",
      "type": "function"
    },
    {
      "inputs": [
        {
          "internalType": "uint256",
          "name": "tokenId",
          "type": "uint256"
        }
      ],
      "name": "ownerOf",
      "outputs": [
        {
          "internalType": "address",
          "name": "",
          "type": "address"
        }
      ],
      "stateMutability": "view",
      "type": "function"
    },
    {
      "inputs": [],
      "name": "pause",
      "outputs": [],
      "stateMutability": "nonpayable",
      "type": "function"
    },
    {
      "inputs": [],
      "name": "paused",
      "outputs": [
        {
          "internalType": "bool",
          "name": "",
          "type": "bool"
        }
      ],
      "stateMutability": "view",
      "type": "function"
    },
    {
      "inputs": [],
      "name": "proxiableUUID",
      "outputs": [
        {
          "internalType": "bytes32",
          "name": "",
          "type": "bytes32"
        }
      ],
      "stateMutability": "view",
      "type": "function"
    },
    {
      "inputs": [
        {
          "internalType": "bytes32",
          "name": "role",
          "type": "bytes32"
        },
        {
          "internalType": "address",
          "name": "account",
          "type": "address"
        }
      ],
      "name": "renounceRole",
      "outputs": [],
      "stateMutability": "nonpayable",
      "type": "function"
    },
    {
      "inputs": [
        {
          "internalType": "bytes32",
          "name": "role",
          "type": "bytes32"
        },
        {
          "internalType": "address",
          "name": "account",
          "type": "address"
        }
      ],
      "name": "revokeRole",
      "outputs": [],
      "stateMutability": "nonpayable",
      "type": "function"
    },
    {
      "inputs": [
        {
          "internalType": "address",
          "name": "to",
          "type": "address"
        },
        {
          "internalType": "uint256",
          "name": "metaDataId",
          "type": "uint256"
        }
      ],
      "name": "safeMint",
      "outputs": [
        {
          "internalType": "uint256",
          "name": "",
          "type": "uint256"
        }
      ],
      "stateMutability": "payable",
      "type": "function"
    },
    {
      "inputs": [
        {
          "internalType": "address",
          "name": "from",
          "type": "address"
        },
        {
          "internalType": "address",
          "name": "to",
          "type": "address"
        },
        {
          "internalType": "uint256",
          "name": "tokenId",
          "type": "uint256"
        }
      ],
      "name": "safeTransferFrom",
      "outputs": [],
      "stateMutability": "nonpayable",
      "type": "function"
    },
    {
      "inputs": [
        {
          "internalType": "address",
          "name": "from",
          "type": "address"
        },
        {
          "internalType": "address",
          "name": "to",
          "type": "address"
        },
        {
          "internalType": "uint256",
          "name": "tokenId",
          "type": "uint256"
        },
        {
          "internalType": "bytes",
          "name": "data",
          "type": "bytes"
        }
      ],
      "name": "safeTransferFrom",
      "outputs": [],
      "stateMutability": "nonpayable",
      "type": "function"
    },
    {
      "inputs": [
        {
          "internalType": "address",
          "name": "operator",
          "type": "address"
        },
        {
          "internalType": "bool",
          "name": "approved",
          "type": "bool"
        }
      ],
      "name": "setApprovalForAll",
      "outputs": [],
      "stateMutability": "nonpayable",
      "type": "function"
    },
    {
      "inputs": [
        {
          "internalType": "bytes4",
          "name": "interfaceId",
          "type": "bytes4"
        }
      ],
      "name": "supportsInterface",
      "outputs": [
        {
          "internalType": "bool",
          "name": "",
          "type": "bool"
        }
      ],
      "stateMutability": "view",
      "type": "function"
    },
    {
      "inputs": [],
      "name": "symbol",
      "outputs": [
        {
          "internalType": "string",
          "name": "",
          "type": "string"
        }
      ],
      "stateMutability": "view",
      "type": "function"
    },
    {
      "inputs": [],
      "name": "toggleLocked",
      "outputs": [],
      "stateMutability": "nonpayable",
      "type": "function"
    },
    {
      "inputs": [
        {
          "internalType": "uint256",
          "name": "index",
          "type": "uint256"
        }
      ],
      "name": "tokenByIndex",
      "outputs": [
        {
          "internalType": "uint256",
          "name": "",
          "type": "uint256"
        }
      ],
      "stateMutability": "view",
      "type": "function"
    },
    {
      "inputs": [
        {
          "internalType": "address",
          "name": "owner",
          "type": "address"
        },
        {
          "internalType": "uint256",
          "name": "index",
          "type": "uint256"
        }
      ],
      "name": "tokenOfOwnerByIndex",
      "outputs": [
        {
          "internalType": "uint256",
          "name": "",
          "type": "uint256"
        }
      ],
      "stateMutability": "view",
      "type": "function"
    },
    {
      "inputs": [
        {
          "internalType": "uint256",
          "name": "",
          "type": "uint256"
        }
      ],
      "name": "tokenPrices",
      "outputs": [
        {
          "internalType": "uint256",
          "name": "",
          "type": "uint256"
        }
      ],
      "stateMutability": "view",
      "type": "function"
    },
    {
      "inputs": [
        {
          "internalType": "uint256",
          "name": "tokenId",
          "type": "uint256"
        }
      ],
      "name": "tokenURI",
      "outputs": [
        {
          "internalType": "string",
          "name": "",
          "type": "string"
        }
      ],
      "stateMutability": "view",
      "type": "function"
    },
    {
      "inputs": [],
      "name": "totalSupply",
      "outputs": [
        {
          "internalType": "uint256",
          "name": "",
          "type": "uint256"
        }
      ],
      "stateMutability": "view",
      "type": "function"
    },
    {
      "inputs": [
        {
          "internalType": "address",
          "name": "from",
          "type": "address"
        },
        {
          "internalType": "address",
          "name": "to",
          "type": "address"
        },
        {
          "internalType": "uint256",
          "name": "tokenId",
          "type": "uint256"
        }
      ],
      "name": "transferFrom",
      "outputs": [],
      "stateMutability": "nonpayable",
      "type": "function"
    },
    {
      "inputs": [],
      "name": "unpause",
      "outputs": [],
      "stateMutability": "nonpayable",
      "type": "function"
    },
    {
      "inputs": [
        {
          "internalType": "address",
          "name": "newImplementation",
          "type": "address"
        }
      ],
      "name": "upgradeTo",
      "outputs": [],
      "stateMutability": "nonpayable",
      "type": "function"
    },
    {
      "inputs": [
        {
          "internalType": "address",
          "name": "newImplementation",
          "type": "address"
        },
        {
          "internalType": "bytes",
          "name": "data",
          "type": "bytes"
        }
      ],
      "name": "upgradeToAndCall",
      "outputs": [],
      "stateMutability": "payable",
      "type": "function"
    },
    {
      "inputs": [
        {
          "internalType": "uint256",
          "name": "",
          "type": "uint256"
        }
      ],
      "name": "whiteLists",
      "outputs": [
        {
          "internalType": "address",
          "name": "",
          "type": "address"
        }
      ],
      "stateMutability": "view",
      "type": "function"
    }
  ],
  "bytecode": "0x60a06040523060601b6080523480156200001857600080fd5b506200002362000029565b620000eb565b600054610100900460ff1615620000965760405162461bcd60e51b815260206004820152602760248201527f496e697469616c697a61626c653a20636f6e747261637420697320696e697469604482015266616c697a696e6760c81b606482015260840160405180910390fd5b60005460ff9081161015620000e9576000805460ff191660ff9081179091556040519081527f7f26b83ff96e1f2b6a682f133852f6798a09c465da95921460cefb38474024989060200160405180910390a15b565b60805160601c613dde6200012660003960008181610da201528181610de201528181610eeb01528181610f2b015261105b0152613dde6000f3fe60806040526004361061027d5760003560e01c80638129fc1c1161014f578063c56b7142116100c1578063e5afe3e61161007a578063e5afe3e614610826578063e63ab1e914610846578063e7cd4a0414610868578063e985e9c514610888578063f6a3d24e146108d1578063f72c0d8b146108f157600080fd5b8063c56b714214610757578063c87b56dd14610777578063ca15c87314610797578063cf309012146107b7578063d5391393146107d2578063d547741f1461080657600080fd5b8063a0202a9a11610113578063a0202a9a1461069e578063a1448194146106cf578063a217fddf146106e2578063a22cb465146106f7578063aea2192a14610717578063b88d4fde1461073757600080fd5b80638129fc1c1461061f5780638456cb59146106345780639010d07c1461064957806391d148541461066957806395d89b411461068957600080fd5b80632f745c59116101f35780634f1ef286116101ac5780634f1ef2861461057f5780634f6ccce71461059257806352d1902d146105b25780635c975abb146105c75780636352211e146105df57806370a08231146105ff57600080fd5b80632f745c59146104ca57806336568abe146104ea5780633659cfe61461050a5780633f4ba83a1461052a57806342842e0e1461053f57806342966c681461055f57600080fd5b8063095ea7b311610245578063095ea7b3146103fa578063125d49f61461041a57806318160ddd1461043a57806323b872dd14610459578063248a9ca3146104795780632f2ff15d146104aa57600080fd5b80630178fe3f1461028257806301b117921461035957806301ffc9a71461037057806306fdde03146103a0578063081812fc146103c2575b600080fd5b34801561028e57600080fd5b5061031061029d366004613752565b60408051608081018252600080825260208201819052918101829052606081019190915250600090815261022f60209081526040918290208251608081018452815460ff808216835261010090910481169382019390935260018201549381019390935260020154161515606082015290565b6040516103509190600060808201905060ff835116825260ff60208401511660208301526040830151604083015260608301511515606083015292915050565b60405180910390f35b34801561036557600080fd5b5061036e610925565b005b34801561037c57600080fd5b5061039061038b3660046137c5565b610953565b6040519015158152602001610350565b3480156103ac57600080fd5b506103b5610964565b6040516103509190613993565b3480156103ce57600080fd5b506103e26103dd366004613752565b6109f6565b6040516001600160a01b039091168152602001610350565b34801561040657600080fd5b5061036e610415366004613729565b610a1d565b34801561042657600080fd5b5061036e6104353660046137fd565b610b38565b34801561044657600080fd5b506099545b604051908152602001610350565b34801561046557600080fd5b5061036e610474366004613547565b610c2b565b34801561048557600080fd5b5061044b610494366004613752565b600090815261012d602052604090206001015490565b3480156104b657600080fd5b5061036e6104c5366004613782565b610c5d565b3480156104d657600080fd5b5061044b6104e5366004613729565b610c83565b3480156104f657600080fd5b5061036e610505366004613782565b610d19565b34801561051657600080fd5b5061036e6105253660046134fb565b610d97565b34801561053657600080fd5b5061036e610e77565b34801561054b57600080fd5b5061036e61055a366004613547565b610e97565b34801561056b57600080fd5b5061036e61057a366004613752565b610eb2565b61036e61058d3660046136dd565b610ee0565b34801561059e57600080fd5b5061044b6105ad366004613752565b610fad565b3480156105be57600080fd5b5061044b61104e565b3480156105d357600080fd5b5060fb5460ff16610390565b3480156105eb57600080fd5b506103e26105fa366004613752565b611101565b34801561060b57600080fd5b5061044b61061a3660046134fb565b611161565b34801561062b57600080fd5b5061036e6111e7565b34801561064057600080fd5b5061036e61143b565b34801561065557600080fd5b506103e26106643660046137a4565b61145b565b34801561067557600080fd5b50610390610684366004613782565b61147b565b34801561069557600080fd5b506103b56114a7565b3480156106aa57600080fd5b5061044b6106b9366004613752565b600090815261022f602052604090206001015490565b61044b6106dd366004613729565b6114b6565b3480156106ee57600080fd5b5061044b600081565b34801561070357600080fd5b5061036e6107123660046136a3565b61165a565b61072a6107253660046135e8565b611665565b604051610350919061394f565b34801561074357600080fd5b5061036e610752366004613582565b611743565b34801561076357600080fd5b506103e2610772366004613752565b61177b565b34801561078357600080fd5b506103b5610792366004613752565b6117a6565b3480156107a357600080fd5b5061044b6107b2366004613752565b6117b1565b3480156107c357600080fd5b5061022e546103909060ff1681565b3480156107de57600080fd5b5061044b7f9f2df0fed2c77648de5860a4cc508cd0818c85b8b8a1ab4ceeef8d981c8956a681565b34801561081257600080fd5b5061036e610821366004613782565b6117c9565b34801561083257600080fd5b5061044b610841366004613752565b6117ef565b34801561085257600080fd5b5061044b600080516020613d6283398151915281565b34801561087457600080fd5b5061036e6108833660046134fb565b611807565b34801561089457600080fd5b506103906108a3366004613515565b6001600160a01b039182166000908152606a6020908152604080832093909416825291909152205460ff1690565b3480156108dd57600080fd5b506103906108ec3660046134fb565b611873565b3480156108fd57600080fd5b5061044b7f189ab7a9244df0848122154315af71fe140f3db0fe014031783b0946b8c9d2e381565b600080516020613d6283398151915261093d816118ed565b5061022e805460ff19811660ff90911615179055565b600061095e826118f7565b92915050565b60606065805461097390613c54565b80601f016020809104026020016040519081016040528092919081815260200182805461099f90613c54565b80156109ec5780601f106109c1576101008083540402835291602001916109ec565b820191906000526020600020905b8154815290600101906020018083116109cf57829003601f168201915b5050505050905090565b6000610a018261191c565b506000908152606960205260409020546001600160a01b031690565b6000610a2882611101565b9050806001600160a01b0316836001600160a01b03161415610a9b5760405162461bcd60e51b815260206004820152602160248201527f4552433732313a20617070726f76616c20746f2063757272656e74206f776e656044820152603960f91b60648201526084015b60405180910390fd5b336001600160a01b0382161480610ab75750610ab781336108a3565b610b295760405162461bcd60e51b815260206004820152603d60248201527f4552433732313a20617070726f76652063616c6c6572206973206e6f7420746f60448201527f6b656e206f776e6572206f7220617070726f76656420666f7220616c6c0000006064820152608401610a92565b610b33838361197b565b505050565b7f9f2df0fed2c77648de5860a4cc508cd0818c85b8b8a1ab4ceeef8d981c8956a6610b62816118ed565b600083815261022f6020526040902054610b8090839060ff16613bb6565b600084815261022f602052604090206001810154905460ff92831692610bac9291610100900416613bdb565b11610bec5760405162461bcd60e51b815260206004820152601060248201526f195e18d95959081b585e081b195d995b60821b6044820152606401610a92565b600083815261022f602052604081208054849290610c0e90849060ff16613bb6565b92506101000a81548160ff021916908360ff160217905550505050565b610c36335b826119e9565b610c525760405162461bcd60e51b8152600401610a92906139a6565b610b33838383611a68565b600082815261012d6020526040902060010154610c79816118ed565b610b338383611bd7565b6000610c8e83611161565b8210610cf05760405162461bcd60e51b815260206004820152602b60248201527f455243373231456e756d657261626c653a206f776e657220696e646578206f7560448201526a74206f6620626f756e647360a81b6064820152608401610a92565b506001600160a01b03919091166000908152609760209081526040808320938352929052205490565b6001600160a01b0381163314610d895760405162461bcd60e51b815260206004820152602f60248201527f416363657373436f6e74726f6c3a2063616e206f6e6c792072656e6f756e636560448201526e103937b632b9903337b91039b2b63360891b6064820152608401610a92565b610d938282611bfa565b5050565b306001600160a01b037f0000000000000000000000000000000000000000000000000000000000000000161415610de05760405162461bcd60e51b8152600401610a9290613a8a565b7f00000000000000000000000000000000000000000000000000000000000000006001600160a01b0316610e29600080516020613d42833981519152546001600160a01b031690565b6001600160a01b031614610e4f5760405162461bcd60e51b8152600401610a9290613ad6565b610e5881611c1d565b60408051600080825260208201909252610e7491839190611c47565b50565b600080516020613d62833981519152610e8f816118ed565b610e74611dc1565b610b3383838360405180602001604052806000815250611743565b610ebb33610c30565b610ed75760405162461bcd60e51b8152600401610a92906139a6565b610e7481611e13565b306001600160a01b037f0000000000000000000000000000000000000000000000000000000000000000161415610f295760405162461bcd60e51b8152600401610a9290613a8a565b7f00000000000000000000000000000000000000000000000000000000000000006001600160a01b0316610f72600080516020613d42833981519152546001600160a01b031690565b6001600160a01b031614610f985760405162461bcd60e51b8152600401610a9290613ad6565b610fa182611c1d565b610d9382826001611c47565b6000610fb860995490565b821061101b5760405162461bcd60e51b815260206004820152602c60248201527f455243373231456e756d657261626c653a20676c6f62616c20696e646578206f60448201526b7574206f6620626f756e647360a01b6064820152608401610a92565b6099828154811061103c57634e487b7160e01b600052603260045260246000fd5b90600052602060002001549050919050565b6000306001600160a01b037f000000000000000000000000000000000000000000000000000000000000000016146110ee5760405162461bcd60e51b815260206004820152603860248201527f555550535570677261646561626c653a206d757374206e6f742062652063616c60448201527f6c6564207468726f7567682064656c656761746563616c6c00000000000000006064820152608401610a92565b50600080516020613d4283398151915290565b6000818152606760205260408120546001600160a01b03168061095e5760405162461bcd60e51b8152602060048201526018602482015277115490cdcc8c4e881a5b9d985b1a59081d1bdad95b88125160421b6044820152606401610a92565b60006001600160a01b0382166111cb5760405162461bcd60e51b815260206004820152602960248201527f4552433732313a2061646472657373207a65726f206973206e6f7420612076616044820152683634b21037bbb732b960b91b6064820152608401610a92565b506001600160a01b031660009081526068602052604090205490565b600054610100900460ff16158080156112075750600054600160ff909116105b806112215750303b158015611221575060005460ff166001145b6112845760405162461bcd60e51b815260206004820152602e60248201527f496e697469616c697a61626c653a20636f6e747261637420697320616c72656160448201526d191e481a5b9a5d1a585b1a5e995960921b6064820152608401610a92565b6000805460ff1916600117905580156112a7576000805461ff0019166101001790555b6112ec60405180604001604052806008815260200167109bdbdcdd13919560c21b81525060405180604001604052806003815260200162212a2760e91b815250611e1c565b6112f4611e4d565b6112fc611e4d565b611304611e76565b61130c611e4d565b611314611e4d565b61131c611e4d565b611327600033611bd7565b61133f600080516020613d6283398151915233611bd7565b6113697f9f2df0fed2c77648de5860a4cc508cd0818c85b8b8a1ab4ceeef8d981c8956a633611bd7565b6113937f189ab7a9244df0848122154315af71fe140f3db0fe014031783b0946b8c9d2e333611bd7565b6040805160a081018252665543df729c0000808252602082015266ffcb9e57d40000918101919091526701f161421c8e0000606082015267030d98d59a96000060808201526113e79061022890600561336b565b5061022e805460ff191690558015610e74576000805461ff0019169055604051600181527f7f26b83ff96e1f2b6a682f133852f6798a09c465da95921460cefb38474024989060200160405180910390a150565b600080516020613d62833981519152611453816118ed565b610e74611ea5565b600082815261015f602052604081206114749083611ee2565b9392505050565b600091825261012d602090815260408084206001600160a01b0393909316845291905290205460ff1690565b60606066805461097390613c54565b61022e54600090839060ff1615806114e0575061022e5460ff1680156114e057506114e081611873565b6114e957600080fd5b6102286114f7600185613bfa565b6005811061151557634e487b7160e01b600052603260045260246000fd5b01543410156115605760405162461bcd60e51b81526020600482015260176024820152762cb7ba9036bab9ba103830bc9032b737bab3b41021272160491b6044820152606401610a92565b600061156c6102275490565b905061157d61022780546001019055565b6115878582611eee565b6115998161159483611f08565b611fab565b6000806115a583612045565b905060048160ff1610156115b857600691505b60088160ff1610156115cd5760059150611611565b60108160ff1610156115e25760049150611611565b60208160ff1610156115f75760039150611611565b60408160ff16101561160c5760029150611611565b600191505b50600082815261022f602052604090208054600180830188905560ff1960ff90941661010002841661ffff19909216919091171781556002018054909116905591505092915050565b610d9333838361208a565b60603461167183612159565b11156116b95760405162461bcd60e51b81526020600482015260176024820152762cb7ba9036bab9ba103830bc9032b737bab3b41021272160491b6044820152606401610a92565b606060005b835181101561173b5760006116fa868684815181106116ed57634e487b7160e01b600052603260045260246000fd5b60200260200101516114b6565b90508083838151811061171d57634e487b7160e01b600052603260045260246000fd5b6020908102919091010152508061173381613c8f565b9150506116be565b509392505050565b61174d33836119e9565b6117695760405162461bcd60e51b8152600401610a92906139a6565b611775848484846121b0565b50505050565b61022d818154811061178c57600080fd5b6000918252602090912001546001600160a01b0316905081565b606061095e826121e3565b600081815261015f6020526040812061095e906122df565b600082815261012d60205260409020600101546117e5816118ed565b610b338383611bfa565b610228816005811061180057600080fd5b0154905081565b600080516020613d6283398151915261181f816118ed565b5061022d80546001810182556000919091527fcbe5eb94ee31c6183f3d82fc7ed725908f7d7e2da0ee28e8d5e09973be5efd3d0180546001600160a01b0319166001600160a01b0392909216919091179055565b6000805b61022d548110156118e457826001600160a01b031661022d82815481106118ae57634e487b7160e01b600052603260045260246000fd5b6000918252602090912001546001600160a01b031614156118d25750600192915050565b806118dc81613c8f565b915050611877565b50600092915050565b610e7481336122e9565b60006001600160e01b03198216635a05180f60e01b148061095e575061095e82612342565b6000818152606760205260409020546001600160a01b0316610e745760405162461bcd60e51b8152602060048201526018602482015277115490cdcc8c4e881a5b9d985b1a59081d1bdad95b88125160421b6044820152606401610a92565b600081815260696020526040902080546001600160a01b0319166001600160a01b03841690811790915581906119b082611101565b6001600160a01b03167f8c5be1e5ebec7d5bd14f71427d1e84f3dd0314c0f7b2291e5b200ac8c7c3b92560405160405180910390a45050565b6000806119f583611101565b9050806001600160a01b0316846001600160a01b03161480611a3c57506001600160a01b038082166000908152606a602090815260408083209388168352929052205460ff165b80611a605750836001600160a01b0316611a55846109f6565b6001600160a01b0316145b949350505050565b826001600160a01b0316611a7b82611101565b6001600160a01b031614611aa15760405162461bcd60e51b8152600401610a9290613a45565b6001600160a01b038216611b035760405162461bcd60e51b8152602060048201526024808201527f4552433732313a207472616e7366657220746f20746865207a65726f206164646044820152637265737360e01b6064820152608401610a92565b611b0e838383612367565b826001600160a01b0316611b2182611101565b6001600160a01b031614611b475760405162461bcd60e51b8152600401610a9290613a45565b600081815260696020908152604080832080546001600160a01b03199081169091556001600160a01b0387811680865260688552838620805460001901905590871680865283862080546001019055868652606790945282852080549092168417909155905184937fddf252ad1be2c89b69c2b068fc378daa952ba7f163c4a11628f55a4df523b3ef91a4505050565b611be1828261237a565b600082815261015f60205260409020610b339082612401565b611c048282612416565b600082815261015f60205260409020610b33908261247e565b7f189ab7a9244df0848122154315af71fe140f3db0fe014031783b0946b8c9d2e3610d93816118ed565b7f4910fdfa16fed3260ed0e7147f7cc6da11a60208b5b9406d12a635614ffd91435460ff1615611c7a57610b3383612493565b826001600160a01b03166352d1902d6040518163ffffffff1660e01b815260040160206040518083038186803b158015611cb357600080fd5b505afa925050508015611ce3575060408051601f3d908101601f19168201909252611ce09181019061376a565b60015b611d465760405162461bcd60e51b815260206004820152602e60248201527f45524331393637557067726164653a206e657720696d706c656d656e7461746960448201526d6f6e206973206e6f74205555505360901b6064820152608401610a92565b600080516020613d428339815191528114611db55760405162461bcd60e51b815260206004820152602960248201527f45524331393637557067726164653a20756e737570706f727465642070726f786044820152681a58589b195555525160ba1b6064820152608401610a92565b50610b3383838361252f565b611dc9612554565b60fb805460ff191690557f5db9ee0a495bf2e6ff9c91a7834c1ba4fdd244a5e8aa4e537bd38aeae4b073aa335b6040516001600160a01b03909116815260200160405180910390a1565b610e748161259d565b600054610100900460ff16611e435760405162461bcd60e51b8152600401610a9290613b22565b610d9382826125dd565b600054610100900460ff16611e745760405162461bcd60e51b8152600401610a9290613b22565b565b600054610100900460ff16611e9d5760405162461bcd60e51b8152600401610a9290613b22565b611e7461262b565b611ead61265e565b60fb805460ff191660011790557f62e78cea01bee320cd4e420270b5ea74000d11b0c9f74754ebdbfc544b05a258611df63390565b600061147483836126a4565b610d938282604051806020016040528060008152506126dc565b60606000611f158361270f565b600101905060008167ffffffffffffffff811115611f4357634e487b7160e01b600052604160045260246000fd5b6040519080825280601f01601f191660200182016040528015611f6d576020820181803683370190505b5090508181016020015b600019016f181899199a1a9b1b9c1cb0b131b232b360811b600a86061a8153600a8504945084611fa65761173b565b611f77565b6000828152606760205260409020546001600160a01b03166120265760405162461bcd60e51b815260206004820152602e60248201527f45524337323155524953746f726167653a2055524920736574206f66206e6f6e60448201526d32bc34b9ba32b73a103a37b5b2b760911b6064820152608401610a92565b600082815260c9602090815260409091208251610b33928401906133b5565b6040805144602082015242918101919091526060810182905260009060fb906080016040516020818303038152906040528051906020012060001c61095e9190613caa565b816001600160a01b0316836001600160a01b031614156120ec5760405162461bcd60e51b815260206004820152601960248201527f4552433732313a20617070726f766520746f2063616c6c6572000000000000006044820152606401610a92565b6001600160a01b038381166000818152606a6020908152604080832094871680845294825291829020805460ff191686151590811790915591519182527f17307eab39ab6107e8899845ad3d59bd9653f200f220920489ca2b5937696c31910160405180910390a3505050565b600080805b83518110156121a957610228816005811061218957634e487b7160e01b600052603260045260246000fd5b01546121959083613b9e565b9150806121a181613c8f565b91505061215e565b5092915050565b6121bb848484611a68565b6121c7848484846127e7565b6117755760405162461bcd60e51b8152600401610a92906139f3565b60606121ee8261191c565b600082815260c960205260408120805461220790613c54565b80601f016020809104026020016040519081016040528092919081815260200182805461223390613c54565b80156122805780601f1061225557610100808354040283529160200191612280565b820191906000526020600020905b81548152906001019060200180831161226357829003601f168201915b5050505050905060006122916128f4565b90508051600014156122a4575092915050565b8151156122d65780826040516020016122be92919061386e565b60405160208183030381529060405292505050919050565b611a6084612914565b600061095e825490565b6122f3828261147b565b610d93576123008161297a565b61230b83602061298c565b60405160200161231c92919061389d565b60408051601f198184030181529082905262461bcd60e51b8252610a9291600401613993565b60006001600160e01b03198216637965db0b60e01b148061095e575061095e82612b6e565b61236f61265e565b610b33838383612b93565b612384828261147b565b610d9357600082815261012d602090815260408083206001600160a01b03851684529091529020805460ff191660011790556123bd3390565b6001600160a01b0316816001600160a01b0316837f2f8788117e7eff1d82e926ec794901d17c78024a50270940304540a733656f0d60405160405180910390a45050565b6000611474836001600160a01b038416612c4b565b612420828261147b565b15610d9357600082815261012d602090815260408083206001600160a01b0385168085529252808320805460ff1916905551339285917ff6391f5c32d9c69d2a47ea670b442974b53935d1edc7fd64eb21e047a839171b9190a45050565b6000611474836001600160a01b038416612c9a565b6001600160a01b0381163b6125005760405162461bcd60e51b815260206004820152602d60248201527f455243313936373a206e657720696d706c656d656e746174696f6e206973206e60448201526c1bdd08184818dbdb9d1c9858dd609a1b6064820152608401610a92565b600080516020613d4283398151915280546001600160a01b0319166001600160a01b0392909216919091179055565b61253883612db7565b6000825111806125455750805b15610b33576117758383612df7565b60fb5460ff16611e745760405162461bcd60e51b815260206004820152601460248201527314185d5cd8589b194e881b9bdd081c185d5cd95960621b6044820152606401610a92565b6125a681612eeb565b600081815260c96020526040902080546125bf90613c54565b159050610e7457600081815260c960205260408120610e7491613429565b600054610100900460ff166126045760405162461bcd60e51b8152600401610a9290613b22565b81516126179060659060208501906133b5565b508051610b339060669060208401906133b5565b600054610100900460ff166126525760405162461bcd60e51b8152600401610a9290613b22565b60fb805460ff19169055565b60fb5460ff1615611e745760405162461bcd60e51b815260206004820152601060248201526f14185d5cd8589b194e881c185d5cd95960821b6044820152606401610a92565b60008260000182815481106126c957634e487b7160e01b600052603260045260246000fd5b9060005260206000200154905092915050565b6126e68383612f8c565b6126f360008484846127e7565b610b335760405162461bcd60e51b8152600401610a92906139f3565b60008072184f03e93ff9f4daa797ed6e38ed64bf6a1f0160401b831061274e5772184f03e93ff9f4daa797ed6e38ed64bf6a1f0160401b830492506040015b6d04ee2d6d415b85acef8100000000831061277a576d04ee2d6d415b85acef8100000000830492506020015b662386f26fc10000831061279857662386f26fc10000830492506010015b6305f5e10083106127b0576305f5e100830492506008015b61271083106127c457612710830492506004015b606483106127d6576064830492506002015b600a831061095e5760010192915050565b60006001600160a01b0384163b156128e957604051630a85bd0160e11b81526001600160a01b0385169063150b7a029061282b903390899088908890600401613912565b602060405180830381600087803b15801561284557600080fd5b505af1925050508015612875575060408051601f3d908101601f19168201909252612872918101906137e1565b60015b6128cf573d8080156128a3576040519150601f19603f3d011682016040523d82523d6000602084013e6128a8565b606091505b5080516128c75760405162461bcd60e51b8152600401610a92906139f3565b805181602001fd5b6001600160e01b031916630a85bd0160e11b149050611a60565b506001949350505050565b6060604051806060016040528060358152602001613d0d60359139905090565b606061291f8261191c565b60006129296128f4565b905060008151116129495760405180602001604052806000815250611474565b8061295384611f08565b60405160200161296492919061386e565b6040516020818303038152906040529392505050565b606061095e6001600160a01b03831660145b6060600061299b836002613bdb565b6129a6906002613b9e565b67ffffffffffffffff8111156129cc57634e487b7160e01b600052604160045260246000fd5b6040519080825280601f01601f1916602001820160405280156129f6576020820181803683370190505b509050600360fc1b81600081518110612a1f57634e487b7160e01b600052603260045260246000fd5b60200101906001600160f81b031916908160001a905350600f60fb1b81600181518110612a5c57634e487b7160e01b600052603260045260246000fd5b60200101906001600160f81b031916908160001a9053506000612a80846002613bdb565b612a8b906001613b9e565b90505b6001811115612b1f576f181899199a1a9b1b9c1cb0b131b232b360811b85600f1660108110612acd57634e487b7160e01b600052603260045260246000fd5b1a60f81b828281518110612af157634e487b7160e01b600052603260045260246000fd5b60200101906001600160f81b031916908160001a90535060049490941c93612b1881613c3d565b9050612a8e565b5083156114745760405162461bcd60e51b815260206004820181905260248201527f537472696e67733a20686578206c656e67746820696e73756666696369656e746044820152606401610a92565b60006001600160e01b0319821663780e9d6360e01b148061095e575061095e82613123565b6001600160a01b038316612bee57612be981609980546000838152609a60205260408120829055600182018355919091527f72a152ddfb8e864297c917af52ea6c1c68aead0fee1a62673fcc7e0c94979d000155565b612c11565b816001600160a01b0316836001600160a01b031614612c1157612c118382613173565b6001600160a01b038216612c2857610b3381613210565b826001600160a01b0316826001600160a01b031614610b3357610b3382826132e9565b6000818152600183016020526040812054612c925750815460018181018455600084815260208082209093018490558454848252828601909352604090209190915561095e565b50600061095e565b60008181526001830160205260408120548015612dad576000612cbe600183613bfa565b8554909150600090612cd290600190613bfa565b9050818114612d53576000866000018281548110612d0057634e487b7160e01b600052603260045260246000fd5b9060005260206000200154905080876000018481548110612d3157634e487b7160e01b600052603260045260246000fd5b6000918252602080832090910192909255918252600188019052604090208390555b8554869080612d7257634e487b7160e01b600052603160045260246000fd5b60019003818190600052602060002001600090559055856001016000868152602001908152602001600020600090556001935050505061095e565b600091505061095e565b612dc081612493565b6040516001600160a01b038216907fbc7cd75a20ee27fd9adebab32041f755214dbc6bffa90cc0225b39da2e5c2d3b90600090a250565b60606001600160a01b0383163b612e5f5760405162461bcd60e51b815260206004820152602660248201527f416464726573733a2064656c65676174652063616c6c20746f206e6f6e2d636f6044820152651b9d1c9858dd60d21b6064820152608401610a92565b600080846001600160a01b031684604051612e7a9190613852565b600060405180830381855af49150503d8060008114612eb5576040519150601f19603f3d011682016040523d82523d6000602084013e612eba565b606091505b5091509150612ee28282604051806060016040528060278152602001613d826027913961332d565b95945050505050565b6000612ef682611101565b9050612f0481600084612367565b612f0d82611101565b600083815260696020908152604080832080546001600160a01b03199081169091556001600160a01b0385168085526068845282852080546000190190558785526067909352818420805490911690555192935084927fddf252ad1be2c89b69c2b068fc378daa952ba7f163c4a11628f55a4df523b3ef908390a45050565b6001600160a01b038216612fe25760405162461bcd60e51b815260206004820181905260248201527f4552433732313a206d696e7420746f20746865207a65726f20616464726573736044820152606401610a92565b6000818152606760205260409020546001600160a01b0316156130475760405162461bcd60e51b815260206004820152601c60248201527f4552433732313a20746f6b656e20616c7265616479206d696e746564000000006044820152606401610a92565b61305360008383612367565b6000818152606760205260409020546001600160a01b0316156130b85760405162461bcd60e51b815260206004820152601c60248201527f4552433732313a20746f6b656e20616c7265616479206d696e746564000000006044820152606401610a92565b6001600160a01b038216600081815260686020908152604080832080546001019055848352606790915280822080546001600160a01b0319168417905551839291907fddf252ad1be2c89b69c2b068fc378daa952ba7f163c4a11628f55a4df523b3ef908290a45050565b60006001600160e01b031982166380ac58cd60e01b148061315457506001600160e01b03198216635b5e139f60e01b145b8061095e57506301ffc9a760e01b6001600160e01b031983161461095e565b6000600161318084611161565b61318a9190613bfa565b6000838152609860205260409020549091508082146131dd576001600160a01b03841660009081526097602090815260408083208584528252808320548484528184208190558352609890915290208190555b5060009182526098602090815260408084208490556001600160a01b039094168352609781528383209183525290812055565b60995460009061322290600190613bfa565b6000838152609a60205260408120546099805493945090928490811061325857634e487b7160e01b600052603260045260246000fd5b90600052602060002001549050806099838154811061328757634e487b7160e01b600052603260045260246000fd5b6000918252602080832090910192909255828152609a909152604080822084905585825281205560998054806132cd57634e487b7160e01b600052603160045260246000fd5b6001900381819060005260206000200160009055905550505050565b60006132f483611161565b6001600160a01b039093166000908152609760209081526040808320868452825280832085905593825260989052919091209190915550565b6060831561333c575081611474565b61147483838151156133515781518083602001fd5b8060405162461bcd60e51b8152600401610a929190613993565b82600581019282156133a5579160200282015b828111156133a5578251829067ffffffffffffffff1690559160200191906001019061337e565b506133b192915061345f565b5090565b8280546133c190613c54565b90600052602060002090601f0160209004810192826133e357600085556133a5565b82601f106133fc57805160ff19168380011785556133a5565b828001600101855582156133a5579182015b828111156133a557825182559160200191906001019061340e565b50805461343590613c54565b6000825580601f10613445575050565b601f016020900490600052602060002090810190610e7491905b5b808211156133b15760008155600101613460565b80356001600160a01b038116811461348b57600080fd5b919050565b600082601f8301126134a0578081fd5b813567ffffffffffffffff8111156134ba576134ba613ce0565b6134cd601f8201601f1916602001613b6d565b8181528460208386010111156134e1578283fd5b816020850160208301379081016020019190915292915050565b60006020828403121561350c578081fd5b61147482613474565b60008060408385031215613527578081fd5b61353083613474565b915061353e60208401613474565b90509250929050565b60008060006060848603121561355b578081fd5b61356484613474565b925061357260208501613474565b9150604084013590509250925092565b60008060008060808587031215613597578081fd5b6135a085613474565b93506135ae60208601613474565b925060408501359150606085013567ffffffffffffffff8111156135d0578182fd5b6135dc87828801613490565b91505092959194509250565b600080604083850312156135fa578182fd5b61360383613474565b915060208084013567ffffffffffffffff80821115613620578384fd5b818601915086601f830112613633578384fd5b81358181111561364557613645613ce0565b8060051b9150613656848301613b6d565b8181528481019084860184860187018b1015613670578788fd5b8795505b83861015613692578035835260019590950194918601918601613674565b508096505050505050509250929050565b600080604083850312156136b5578182fd5b6136be83613474565b9150602083013580151581146136d2578182fd5b809150509250929050565b600080604083850312156136ef578182fd5b6136f883613474565b9150602083013567ffffffffffffffff811115613713578182fd5b61371f85828601613490565b9150509250929050565b6000806040838503121561373b578182fd5b61374483613474565b946020939093013593505050565b600060208284031215613763578081fd5b5035919050565b60006020828403121561377b578081fd5b5051919050565b60008060408385031215613794578182fd5b8235915061353e60208401613474565b600080604083850312156137b6578081fd5b50508035926020909101359150565b6000602082840312156137d6578081fd5b813561147481613cf6565b6000602082840312156137f2578081fd5b815161147481613cf6565b6000806040838503121561380f578182fd5b82359150602083013560ff811681146136d2578182fd5b6000815180845261383e816020860160208601613c11565b601f01601f19169290920160200192915050565b60008251613864818460208701613c11565b9190910192915050565b60008351613880818460208801613c11565b835190830190613894818360208801613c11565b01949350505050565b7f416363657373436f6e74726f6c3a206163636f756e74200000000000000000008152600083516138d5816017850160208801613c11565b7001034b99036b4b9b9b4b733903937b6329607d1b6017918401918201528351613906816028840160208801613c11565b01602801949350505050565b6001600160a01b038581168252841660208201526040810183905260806060820181905260009061394590830184613826565b9695505050505050565b6020808252825182820181905260009190848201906040850190845b818110156139875783518352928401929184019160010161396b565b50909695505050505050565b6020815260006114746020830184613826565b6020808252602d908201527f4552433732313a2063616c6c6572206973206e6f7420746f6b656e206f776e6560408201526c1c881bdc88185c1c1c9bdd9959609a1b606082015260800190565b60208082526032908201527f4552433732313a207472616e7366657220746f206e6f6e20455243373231526560408201527131b2b4bb32b91034b6b83632b6b2b73a32b960711b606082015260800190565b60208082526025908201527f4552433732313a207472616e736665722066726f6d20696e636f72726563742060408201526437bbb732b960d91b606082015260800190565b6020808252602c908201527f46756e6374696f6e206d7573742062652063616c6c6564207468726f7567682060408201526b19195b1959d85d1958d85b1b60a21b606082015260800190565b6020808252602c908201527f46756e6374696f6e206d7573742062652063616c6c6564207468726f7567682060408201526b6163746976652070726f787960a01b606082015260800190565b6020808252602b908201527f496e697469616c697a61626c653a20636f6e7472616374206973206e6f74206960408201526a6e697469616c697a696e6760a81b606082015260800190565b604051601f8201601f1916810167ffffffffffffffff81118282101715613b9657613b96613ce0565b604052919050565b60008219821115613bb157613bb1613cca565b500190565b600060ff821660ff84168060ff03821115613bd357613bd3613cca565b019392505050565b6000816000190483118215151615613bf557613bf5613cca565b500290565b600082821015613c0c57613c0c613cca565b500390565b60005b83811015613c2c578181015183820152602001613c14565b838111156117755750506000910152565b600081613c4c57613c4c613cca565b506000190190565b600181811c90821680613c6857607f821691505b60208210811415613c8957634e487b7160e01b600052602260045260246000fd5b50919050565b6000600019821415613ca357613ca3613cca565b5060010190565b600082613cc557634e487b7160e01b81526012600452602481fd5b500690565b634e487b7160e01b600052601160045260246000fd5b634e487b7160e01b600052604160045260246000fd5b6001600160e01b031981168114610e7457600080fdfe68747470733a2f2f6c6f676f75742d74686574612e76657263656c2e6170702f6170692f7574696c732f6765744e6674446174612f360894a13ba1a3210667c828492db98dca3e2076cc3735a920a3ca505d382bbc65d7a28e3265b37a6474929f336521b332c1681b933f6cb9f3376673440d862a416464726573733a206c6f772d6c6576656c2064656c65676174652063616c6c206661696c6564a264697066735822122083dae678ff95ae238417f94ce55aff63e9e33e25eef4be16c67082778737eeb564736f6c63430008040033",
  "linkReferences": {},
  "deployedLinkReferences": {}
}