{
  "_format": "hh-sol-artifact-1",
  "contractName": "BoostNFT",
  "sourceName": "contracts/BoostNFT.sol",
  "abi": [
    {
      "inputs": [],
      "stateMutability": "nonpayable",
      "type": "constructor"
    },
    {
      "anonymous": false,
      "inputs": [
        {
          "indexed": false,
          "internalType": "address",
          "name": "previousAdmin",
          "type": "address"
        },
        {
          "indexed": false,
          "internalType": "address",
          "name": "newAdmin",
          "type": "address"
        }
      ],
      "name": "AdminChanged",
      "type": "event"
    },
    {
      "anonymous": false,
      "inputs": [
        {
          "indexed": true,
          "internalType": "address",
          "name": "owner",
          "type": "address"
        },
        {
          "indexed": true,
          "internalType": "address",
          "name": "approved",
          "type": "address"
        },
        {
          "indexed": true,
          "internalType": "uint256",
          "name": "tokenId",
          "type": "uint256"
        }
      ],
      "name": "Approval",
      "type": "event"
    },
    {
      "anonymous": false,
      "inputs": [
        {
          "indexed": true,
          "internalType": "address",
          "name": "owner",
          "type": "address"
        },
        {
          "indexed": true,
          "internalType": "address",
          "name": "operator",
          "type": "address"
        },
        {
          "indexed": false,
          "internalType": "bool",
          "name": "approved",
          "type": "bool"
        }
      ],
      "name": "ApprovalForAll",
      "type": "event"
    },
    {
      "anonymous": false,
      "inputs": [
        {
          "indexed": true,
          "internalType": "address",
          "name": "beacon",
          "type": "address"
        }
      ],
      "name": "BeaconUpgraded",
      "type": "event"
    },
    {
      "anonymous": false,
      "inputs": [
        {
          "indexed": false,
          "internalType": "uint8",
          "name": "version",
          "type": "uint8"
        }
      ],
      "name": "Initialized",
      "type": "event"
    },
    {
      "anonymous": false,
      "inputs": [
        {
          "indexed": false,
          "internalType": "address",
          "name": "account",
          "type": "address"
        }
      ],
      "name": "Paused",
      "type": "event"
    },
    {
      "anonymous": false,
      "inputs": [
        {
          "indexed": true,
          "internalType": "bytes32",
          "name": "role",
          "type": "bytes32"
        },
        {
          "indexed": true,
          "internalType": "bytes32",
          "name": "previousAdminRole",
          "type": "bytes32"
        },
        {
          "indexed": true,
          "internalType": "bytes32",
          "name": "newAdminRole",
          "type": "bytes32"
        }
      ],
      "name": "RoleAdminChanged",
      "type": "event"
    },
    {
      "anonymous": false,
      "inputs": [
        {
          "indexed": true,
          "internalType": "bytes32",
          "name": "role",
          "type": "bytes32"
        },
        {
          "indexed": true,
          "internalType": "address",
          "name": "account",
          "type": "address"
        },
        {
          "indexed": true,
          "internalType": "address",
          "name": "sender",
          "type": "address"
        }
      ],
      "name": "RoleGranted",
      "type": "event"
    },
    {
      "anonymous": false,
      "inputs": [
        {
          "indexed": true,
          "internalType": "bytes32",
          "name": "role",
          "type": "bytes32"
        },
        {
          "indexed": true,
          "internalType": "address",
          "name": "account",
          "type": "address"
        },
        {
          "indexed": true,
          "internalType": "address",
          "name": "sender",
          "type": "address"
        }
      ],
      "name": "RoleRevoked",
      "type": "event"
    },
    {
      "anonymous": false,
      "inputs": [
        {
          "indexed": true,
          "internalType": "address",
          "name": "from",
          "type": "address"
        },
        {
          "indexed": true,
          "internalType": "address",
          "name": "to",
          "type": "address"
        },
        {
          "indexed": true,
          "internalType": "uint256",
          "name": "tokenId",
          "type": "uint256"
        }
      ],
      "name": "Transfer",
      "type": "event"
    },
    {
      "anonymous": false,
      "inputs": [
        {
          "indexed": false,
          "internalType": "address",
          "name": "account",
          "type": "address"
        }
      ],
      "name": "Unpaused",
      "type": "event"
    },
    {
      "anonymous": false,
      "inputs": [
        {
          "indexed": true,
          "internalType": "address",
          "name": "implementation",
          "type": "address"
        }
      ],
      "name": "Upgraded",
      "type": "event"
    },
    {
      "inputs": [],
      "name": "DEFAULT_ADMIN_ROLE",
      "outputs": [
        {
          "internalType": "bytes32",
          "name": "",
          "type": "bytes32"
        }
      ],
      "stateMutability": "view",
      "type": "function"
    },
    {
      "inputs": [],
      "name": "MINTER_ROLE",
      "outputs": [
        {
          "internalType": "bytes32",
          "name": "",
          "type": "bytes32"
        }
      ],
      "stateMutability": "view",
      "type": "function"
    },
    {
      "inputs": [],
      "name": "PAUSER_ROLE",
      "outputs": [
        {
          "internalType": "bytes32",
          "name": "",
          "type": "bytes32"
        }
      ],
      "stateMutability": "view",
      "type": "function"
    },
    {
      "inputs": [],
      "name": "UPGRADER_ROLE",
      "outputs": [
        {
          "internalType": "bytes32",
          "name": "",
          "type": "bytes32"
        }
      ],
      "stateMutability": "view",
      "type": "function"
    },
    {
      "inputs": [
        {
          "internalType": "address",
          "name": "userAddress",
          "type": "address"
        }
      ],
      "name": "addWhiteList",
      "outputs": [],
      "stateMutability": "nonpayable",
      "type": "function"
    },
    {
      "inputs": [
        {
          "internalType": "address",
          "name": "to",
          "type": "address"
        },
        {
          "internalType": "uint256",
          "name": "tokenId",
          "type": "uint256"
        }
      ],
      "name": "approve",
      "outputs": [],
      "stateMutability": "nonpayable",
      "type": "function"
    },
    {
      "inputs": [
        {
          "internalType": "address",
          "name": "owner",
          "type": "address"
        }
      ],
      "name": "balanceOf",
      "outputs": [
        {
          "internalType": "uint256",
          "name": "",
          "type": "uint256"
        }
      ],
      "stateMutability": "view",
      "type": "function"
    },
    {
      "inputs": [
        {
          "internalType": "uint256",
          "name": "tokenId",
          "type": "uint256"
        }
      ],
      "name": "burn",
      "outputs": [],
      "stateMutability": "nonpayable",
      "type": "function"
    },
    {
      "inputs": [
        {
          "internalType": "address",
          "name": "userAddress",
          "type": "address"
        }
      ],
      "name": "exists",
      "outputs": [
        {
          "internalType": "bool",
          "name": "",
          "type": "bool"
        }
      ],
      "stateMutability": "view",
      "type": "function"
    },
    {
      "inputs": [
        {
          "internalType": "uint256",
          "name": "tokenId",
          "type": "uint256"
        }
      ],
      "name": "getApproved",
      "outputs": [
        {
          "internalType": "address",
          "name": "",
          "type": "address"
        }
      ],
      "stateMutability": "view",
      "type": "function"
    },
    {
      "inputs": [
        {
          "internalType": "uint256",
          "name": "tokenId",
          "type": "uint256"
        }
      ],
      "name": "getData",
      "outputs": [
        {
          "components": [
            {
              "internalType": "uint8",
              "name": "level",
              "type": "uint8"
            },
            {
              "internalType": "uint8",
              "name": "rarity",
              "type": "uint8"
            },
            {
              "internalType": "uint256",
              "name": "metaId",
              "type": "uint256"
            },
            {
              "internalType": "bool",
              "name": "disabled",
              "type": "bool"
            }
          ],
          "internalType": "struct BoostNFT.Datas",
          "name": "",
          "type": "tuple"
        }
      ],
      "stateMutability": "view",
      "type": "function"
    },
    {
      "inputs": [
        {
          "internalType": "uint256",
          "name": "tokenId",
          "type": "uint256"
        }
      ],
      "name": "getMetadataId",
      "outputs": [
        {
          "internalType": "uint256",
          "name": "",
          "type": "uint256"
        }
      ],
      "stateMutability": "view",
      "type": "function"
    },
    {
      "inputs": [
        {
          "internalType": "bytes32",
          "name": "role",
          "type": "bytes32"
        }
      ],
      "name": "getRoleAdmin",
      "outputs": [
        {
          "internalType": "bytes32",
          "name": "",
          "type": "bytes32"
        }
      ],
      "stateMutability": "view",
      "type": "function"
    },
    {
      "inputs": [
        {
          "internalType": "bytes32",
          "name": "role",
          "type": "bytes32"
        },
        {
          "internalType": "uint256",
          "name": "index",
          "type": "uint256"
        }
      ],
      "name": "getRoleMember",
      "outputs": [
        {
          "internalType": "address",
          "name": "",
          "type": "address"
        }
      ],
      "stateMutability": "view",
      "type": "function"
    },
    {
      "inputs": [
        {
          "internalType": "bytes32",
          "name": "role",
          "type": "bytes32"
        }
      ],
      "name": "getRoleMemberCount",
      "outputs": [
        {
          "internalType": "uint256",
          "name": "",
          "type": "uint256"
        }
      ],
      "stateMutability": "view",
      "type": "function"
    },
    {
      "inputs": [
        {
          "internalType": "uint256[]",
          "name": "arr",
          "type": "uint256[]"
        }
      ],
      "name": "getTotalPrice",
      "outputs": [
        {
          "internalType": "uint256",
          "name": "",
          "type": "uint256"
        }
      ],
      "stateMutability": "view",
      "type": "function"
    },
    {
      "inputs": [
        {
          "internalType": "bytes32",
          "name": "role",
          "type": "bytes32"
        },
        {
          "internalType": "address",
          "name": "account",
          "type": "address"
        }
      ],
      "name": "grantRole",
      "outputs": [],
      "stateMutability": "nonpayable",
      "type": "function"
    },
    {
      "inputs": [
        {
          "internalType": "bytes32",
          "name": "role",
          "type": "bytes32"
        },
        {
          "internalType": "address",
          "name": "account",
          "type": "address"
        }
      ],
      "name": "hasRole",
      "outputs": [
        {
          "internalType": "bool",
          "name": "",
          "type": "bool"
        }
      ],
      "stateMutability": "view",
      "type": "function"
    },
    {
      "inputs": [],
      "name": "initialize",
      "outputs": [],
      "stateMutability": "nonpayable",
      "type": "function"
    },
    {
      "inputs": [
        {
          "internalType": "address",
          "name": "owner",
          "type": "address"
        },
        {
          "internalType": "address",
          "name": "operator",
          "type": "address"
        }
      ],
      "name": "isApprovedForAll",
      "outputs": [
        {
          "internalType": "bool",
          "name": "",
          "type": "bool"
        }
      ],
      "stateMutability": "view",
      "type": "function"
    },
    {
      "inputs": [
        {
          "internalType": "uint256",
          "name": "tokenId",
          "type": "uint256"
        },
        {
          "internalType": "uint8",
          "name": "step",
          "type": "uint8"
        }
      ],
      "name": "levelUp",
      "outputs": [],
      "stateMutability": "nonpayable",
      "type": "function"
    },
    {
      "inputs": [],
      "name": "locked",
      "outputs": [
        {
          "internalType": "bool",
          "name": "",
          "type": "bool"
        }
      ],
      "stateMutability": "view",
      "type": "function"
    },
    {
      "inputs": [
        {
          "internalType": "address",
          "name": "to",
          "type": "address"
        },
        {
          "internalType": "uint256[]",
          "name": "metaDataIds",
          "type": "uint256[]"
        }
      ],
      "name": "multiSafeMint",
      "outputs": [
        {
          "internalType": "uint256[]",
          "name": "",
          "type": "uint256[]"
        }
      ],
      "stateMutability": "payable",
      "type": "function"
    },
    {
      "inputs": [],
      "name": "name",
      "outputs": [
        {
          "internalType": "string",
          "name": "",
          "type": "string"
        }
      ],
      "stateMutability": "view",
      "type": "function"
    },
    {
      "inputs": [
        {
          "internalType": "uint256",
          "name": "tokenId",
          "type": "uint256"
        }
      ],
      "name": "ownerOf",
      "outputs": [
        {
          "internalType": "address",
          "name": "",
          "type": "address"
        }
      ],
      "stateMutability": "view",
      "type": "function"
    },
    {
      "inputs": [],
      "name": "pause",
      "outputs": [],
      "stateMutability": "nonpayable",
      "type": "function"
    },
    {
      "inputs": [],
      "name": "paused",
      "outputs": [
        {
          "internalType": "bool",
          "name": "",
          "type": "bool"
        }
      ],
      "stateMutability": "view",
      "type": "function"
    },
    {
      "inputs": [],
      "name": "proxiableUUID",
      "outputs": [
        {
          "internalType": "bytes32",
          "name": "",
          "type": "bytes32"
        }
      ],
      "stateMutability": "view",
      "type": "function"
    },
    {
      "inputs": [
        {
          "internalType": "bytes32",
          "name": "role",
          "type": "bytes32"
        },
        {
          "internalType": "address",
          "name": "account",
          "type": "address"
        }
      ],
      "name": "renounceRole",
      "outputs": [],
      "stateMutability": "nonpayable",
      "type": "function"
    },
    {
      "inputs": [
        {
          "internalType": "bytes32",
          "name": "role",
          "type": "bytes32"
        },
        {
          "internalType": "address",
          "name": "account",
          "type": "address"
        }
      ],
      "name": "revokeRole",
      "outputs": [],
      "stateMutability": "nonpayable",
      "type": "function"
    },
    {
      "inputs": [
        {
          "internalType": "address",
          "name": "to",
          "type": "address"
        },
        {
          "internalType": "uint256",
          "name": "metaDataId",
          "type": "uint256"
        }
      ],
      "name": "safeMint",
      "outputs": [
        {
          "internalType": "uint256",
          "name": "",
          "type": "uint256"
        }
      ],
      "stateMutability": "payable",
      "type": "function"
    },
    {
      "inputs": [
        {
          "internalType": "address",
          "name": "from",
          "type": "address"
        },
        {
          "internalType": "address",
          "name": "to",
          "type": "address"
        },
        {
          "internalType": "uint256",
          "name": "tokenId",
          "type": "uint256"
        }
      ],
      "name": "safeTransferFrom",
      "outputs": [],
      "stateMutability": "nonpayable",
      "type": "function"
    },
    {
      "inputs": [
        {
          "internalType": "address",
          "name": "from",
          "type": "address"
        },
        {
          "internalType": "address",
          "name": "to",
          "type": "address"
        },
        {
          "internalType": "uint256",
          "name": "tokenId",
          "type": "uint256"
        },
        {
          "internalType": "bytes",
          "name": "data",
          "type": "bytes"
        }
      ],
      "name": "safeTransferFrom",
      "outputs": [],
      "stateMutability": "nonpayable",
      "type": "function"
    },
    {
      "inputs": [
        {
          "internalType": "address",
          "name": "operator",
          "type": "address"
        },
        {
          "internalType": "bool",
          "name": "approved",
          "type": "bool"
        }
      ],
      "name": "setApprovalForAll",
      "outputs": [],
      "stateMutability": "nonpayable",
      "type": "function"
    },
    {
      "inputs": [
        {
          "internalType": "bytes4",
          "name": "interfaceId",
          "type": "bytes4"
        }
      ],
      "name": "supportsInterface",
      "outputs": [
        {
          "internalType": "bool",
          "name": "",
          "type": "bool"
        }
      ],
      "stateMutability": "view",
      "type": "function"
    },
    {
      "inputs": [],
      "name": "symbol",
      "outputs": [
        {
          "internalType": "string",
          "name": "",
          "type": "string"
        }
      ],
      "stateMutability": "view",
      "type": "function"
    },
    {
      "inputs": [],
      "name": "toggleLocked",
      "outputs": [],
      "stateMutability": "nonpayable",
      "type": "function"
    },
    {
      "inputs": [
        {
          "internalType": "uint256",
          "name": "index",
          "type": "uint256"
        }
      ],
      "name": "tokenByIndex",
      "outputs": [
        {
          "internalType": "uint256",
          "name": "",
          "type": "uint256"
        }
      ],
      "stateMutability": "view",
      "type": "function"
    },
    {
      "inputs": [
        {
          "internalType": "address",
          "name": "owner",
          "type": "address"
        },
        {
          "internalType": "uint256",
          "name": "index",
          "type": "uint256"
        }
      ],
      "name": "tokenOfOwnerByIndex",
      "outputs": [
        {
          "internalType": "uint256",
          "name": "",
          "type": "uint256"
        }
      ],
      "stateMutability": "view",
      "type": "function"
    },
    {
      "inputs": [
        {
          "internalType": "uint256",
          "name": "",
          "type": "uint256"
        }
      ],
      "name": "tokenPrices",
      "outputs": [
        {
          "internalType": "uint256",
          "name": "",
          "type": "uint256"
        }
      ],
      "stateMutability": "view",
      "type": "function"
    },
    {
      "inputs": [
        {
          "internalType": "uint256",
          "name": "tokenId",
          "type": "uint256"
        }
      ],
      "name": "tokenURI",
      "outputs": [
        {
          "internalType": "string",
          "name": "",
          "type": "string"
        }
      ],
      "stateMutability": "view",
      "type": "function"
    },
    {
      "inputs": [],
      "name": "totalSupply",
      "outputs": [
        {
          "internalType": "uint256",
          "name": "",
          "type": "uint256"
        }
      ],
      "stateMutability": "view",
      "type": "function"
    },
    {
      "inputs": [
        {
          "internalType": "address",
          "name": "from",
          "type": "address"
        },
        {
          "internalType": "address",
          "name": "to",
          "type": "address"
        },
        {
          "internalType": "uint256",
          "name": "tokenId",
          "type": "uint256"
        }
      ],
      "name": "transferFrom",
      "outputs": [],
      "stateMutability": "nonpayable",
      "type": "function"
    },
    {
      "inputs": [],
      "name": "unpause",
      "outputs": [],
      "stateMutability": "nonpayable",
      "type": "function"
    },
    {
      "inputs": [
        {
          "internalType": "address",
          "name": "newImplementation",
          "type": "address"
        }
      ],
      "name": "upgradeTo",
      "outputs": [],
      "stateMutability": "nonpayable",
      "type": "function"
    },
    {
      "inputs": [
        {
          "internalType": "address",
          "name": "newImplementation",
          "type": "address"
        },
        {
          "internalType": "bytes",
          "name": "data",
          "type": "bytes"
        }
      ],
      "name": "upgradeToAndCall",
      "outputs": [],
      "stateMutability": "payable",
      "type": "function"
    },
    {
      "inputs": [
        {
          "internalType": "uint256",
          "name": "",
          "type": "uint256"
        }
      ],
      "name": "whiteLists",
      "outputs": [
        {
          "internalType": "address",
          "name": "",
          "type": "address"
        }
      ],
      "stateMutability": "view",
      "type": "function"
    },
    {
      "inputs": [],
      "name": "withdraw",
      "outputs": [],
      "stateMutability": "nonpayable",
      "type": "function"
    }
  ],
  "bytecode": "0x60a06040523060601b6080523480156200001857600080fd5b506200002362000029565b620000eb565b600054610100900460ff1615620000965760405162461bcd60e51b815260206004820152602760248201527f496e697469616c697a61626c653a20636f6e747261637420697320696e697469604482015266616c697a696e6760c81b606482015260840160405180910390fd5b60005460ff9081161015620000e9576000805460ff191660ff9081179091556040519081527f7f26b83ff96e1f2b6a682f133852f6798a09c465da95921460cefb38474024989060200160405180910390a15b565b60805160601c613f536200012660003960008181610dc901528181610e0901528181610fe00152818161102001526111500152613f536000f3fe6080604052600436106102935760003560e01c806370a082311161015a578063c56b7142116100c1578063e5afe3e61161007a578063e5afe3e61461085f578063e63ab1e91461087f578063e7cd4a04146108a1578063e985e9c5146108c1578063f6a3d24e1461090a578063f72c0d8b1461092a57600080fd5b8063c56b7142146107a2578063c87b56dd146107c2578063ca15c873146107e2578063cf30901214610802578063d53913931461081d578063d547741f1461083f57600080fd5b8063a0202a9a11610113578063a0202a9a146106e9578063a14481941461071a578063a217fddf1461072d578063a22cb46514610742578063aea2192a14610762578063b88d4fde1461078257600080fd5b806370a082311461064a5780638129fc1c1461066a5780638456cb591461067f5780639010d07c1461069457806391d14854146106b457806395d89b41146106d457600080fd5b806336568abe116101fe578063459eff3d116101b7578063459eff3d146105aa5780634f1ef286146105ca5780634f6ccce7146105dd57806352d1902d146105fd5780635c975abb146106125780636352211e1461062a57600080fd5b806336568abe146105005780633659cfe6146105205780633ccfd60b146105405780633f4ba83a1461055557806342842e0e1461056a57806342966c681461058a57600080fd5b8063125d49f611610250578063125d49f61461043057806318160ddd1461045057806323b872dd1461046f578063248a9ca31461048f5780632f2ff15d146104c05780632f745c59146104e057600080fd5b80630178fe3f1461029857806301b117921461036f57806301ffc9a71461038657806306fdde03146103b6578063081812fc146103d8578063095ea7b314610410575b600080fd5b3480156102a457600080fd5b506103266102b33660046138a7565b60408051608081018252600080825260208201819052918101829052606081019190915250600090815261022f60209081526040918290208251608081018452815460ff808216835261010090910481169382019390935260018201549381019390935260020154161515606082015290565b6040516103669190600060808201905060ff835116825260ff60208401511660208301526040830151604083015260608301511515606083015292915050565b60405180910390f35b34801561037b57600080fd5b5061038461095e565b005b34801561039257600080fd5b506103a66103a136600461391a565b61098c565b6040519015158152602001610366565b3480156103c257600080fd5b506103cb61099d565b6040516103669190613ae8565b3480156103e457600080fd5b506103f86103f33660046138a7565b610a2f565b6040516001600160a01b039091168152602001610366565b34801561041c57600080fd5b5061038461042b36600461384b565b610a56565b34801561043c57600080fd5b5061038461044b366004613952565b610b71565b34801561045c57600080fd5b506099545b604051908152602001610366565b34801561047b57600080fd5b5061038461048a3660046136e2565b610c52565b34801561049b57600080fd5b506104616104aa3660046138a7565b600090815261012d602052604090206001015490565b3480156104cc57600080fd5b506103846104db3660046138d7565b610c84565b3480156104ec57600080fd5b506104616104fb36600461384b565b610caa565b34801561050c57600080fd5b5061038461051b3660046138d7565b610d40565b34801561052c57600080fd5b5061038461053b366004613696565b610dbe565b34801561054c57600080fd5b50610384610e9e565b34801561056157600080fd5b50610384610ee2565b34801561057657600080fd5b506103846105853660046136e2565b610f02565b34801561059657600080fd5b506103846105a53660046138a7565b610f1d565b3480156105b657600080fd5b506104616105c5366004613874565b610f4b565b6103846105d8366004613809565b610fd5565b3480156105e957600080fd5b506104616105f83660046138a7565b6110a2565b34801561060957600080fd5b50610461611143565b34801561061e57600080fd5b5060fb5460ff166103a6565b34801561063657600080fd5b506103f86106453660046138a7565b6111f6565b34801561065657600080fd5b50610461610665366004613696565b611256565b34801561067657600080fd5b506103846112dc565b34801561068b57600080fd5b50610384611504565b3480156106a057600080fd5b506103f86106af3660046138f9565b611524565b3480156106c057600080fd5b506103a66106cf3660046138d7565b611544565b3480156106e057600080fd5b506103cb611570565b3480156106f557600080fd5b506104616107043660046138a7565b600090815261022f602052604090206001015490565b61046161072836600461384b565b61157f565b34801561073957600080fd5b50610461600081565b34801561074e57600080fd5b5061038461075d3660046137cf565b61160b565b610775610770366004613783565b611616565b6040516103669190613aa4565b34801561078e57600080fd5b5061038461079d36600461371d565b611741565b3480156107ae57600080fd5b506103f86107bd3660046138a7565b611779565b3480156107ce57600080fd5b506103cb6107dd3660046138a7565b6117a4565b3480156107ee57600080fd5b506104616107fd3660046138a7565b6117af565b34801561080e57600080fd5b5061022e546103a69060ff1681565b34801561082957600080fd5b50610461600080516020613efe83398151915281565b34801561084b57600080fd5b5061038461085a3660046138d7565b6117c7565b34801561086b57600080fd5b5061046161087a3660046138a7565b6117ed565b34801561088b57600080fd5b50610461600080516020613eb783398151915281565b3480156108ad57600080fd5b506103846108bc366004613696565b611805565b3480156108cd57600080fd5b506103a66108dc3660046136b0565b6001600160a01b039182166000908152606a6020908152604080832093909416825291909152205460ff1690565b34801561091657600080fd5b506103a6610925366004613696565b611871565b34801561093657600080fd5b506104617f189ab7a9244df0848122154315af71fe140f3db0fe014031783b0946b8c9d2e381565b600080516020613eb7833981519152610976816118eb565b5061022e805460ff19811660ff90911615179055565b6000610997826118f5565b92915050565b6060606580546109ac90613da9565b80601f01602080910402602001604051908101604052809291908181526020018280546109d890613da9565b8015610a255780601f106109fa57610100808354040283529160200191610a25565b820191906000526020600020905b815481529060010190602001808311610a0857829003601f168201915b5050505050905090565b6000610a3a8261191a565b506000908152606960205260409020546001600160a01b031690565b6000610a61826111f6565b9050806001600160a01b0316836001600160a01b03161415610ad45760405162461bcd60e51b815260206004820152602160248201527f4552433732313a20617070726f76616c20746f2063757272656e74206f776e656044820152603960f91b60648201526084015b60405180910390fd5b336001600160a01b0382161480610af05750610af081336108dc565b610b625760405162461bcd60e51b815260206004820152603d60248201527f4552433732313a20617070726f76652063616c6c6572206973206e6f7420746f60448201527f6b656e206f776e6572206f7220617070726f76656420666f7220616c6c0000006064820152608401610acb565b610b6c8383611979565b505050565b600080516020613efe833981519152610b89816118eb565b600083815261022f6020526040902054610ba790839060ff16613d0b565b600084815261022f602052604090206001810154905460ff92831692610bd39291610100900416613d30565b11610c135760405162461bcd60e51b815260206004820152601060248201526f195e18d95959081b585e081b195d995b60821b6044820152606401610acb565b600083815261022f602052604081208054849290610c3590849060ff16613d0b565b92506101000a81548160ff021916908360ff160217905550505050565b610c5d335b826119e7565b610c795760405162461bcd60e51b8152600401610acb90613afb565b610b6c838383611a65565b600082815261012d6020526040902060010154610ca0816118eb565b610b6c8383611bd4565b6000610cb583611256565b8210610d175760405162461bcd60e51b815260206004820152602b60248201527f455243373231456e756d657261626c653a206f776e657220696e646578206f7560448201526a74206f6620626f756e647360a81b6064820152608401610acb565b506001600160a01b03919091166000908152609760209081526040808320938352929052205490565b6001600160a01b0381163314610db05760405162461bcd60e51b815260206004820152602f60248201527f416363657373436f6e74726f6c3a2063616e206f6e6c792072656e6f756e636560448201526e103937b632b9903337b91039b2b63360891b6064820152608401610acb565b610dba8282611bf7565b5050565b306001600160a01b037f0000000000000000000000000000000000000000000000000000000000000000161415610e075760405162461bcd60e51b8152600401610acb90613bdf565b7f00000000000000000000000000000000000000000000000000000000000000006001600160a01b0316610e50600080516020613e97833981519152546001600160a01b031690565b6001600160a01b031614610e765760405162461bcd60e51b8152600401610acb90613c2b565b610e7f81611c1a565b60408051600080825260208201909252610e9b91839190611c44565b50565b600080516020613efe833981519152610eb6816118eb565b60405133904780156108fc02916000818181858888f19350505050158015610dba573d6000803e3d6000fd5b600080516020613eb7833981519152610efa816118eb565b610e9b611dbe565b610b6c83838360405180602001604052806000815250611741565b610f2633610c57565b610f425760405162461bcd60e51b8152600401610acb90613afb565b610e9b81611e10565b600080805b8351811015610fce576102286001858381518110610f7e57634e487b7160e01b600052603260045260246000fd5b6020026020010151610f909190613d4f565b60058110610fae57634e487b7160e01b600052603260045260246000fd5b0154610fba9083613cf3565b915080610fc681613de4565b915050610f50565b5092915050565b306001600160a01b037f000000000000000000000000000000000000000000000000000000000000000016141561101e5760405162461bcd60e51b8152600401610acb90613bdf565b7f00000000000000000000000000000000000000000000000000000000000000006001600160a01b0316611067600080516020613e97833981519152546001600160a01b031690565b6001600160a01b03161461108d5760405162461bcd60e51b8152600401610acb90613c2b565b61109682611c1a565b610dba82826001611c44565b60006110ad60995490565b82106111105760405162461bcd60e51b815260206004820152602c60248201527f455243373231456e756d657261626c653a20676c6f62616c20696e646578206f60448201526b7574206f6620626f756e647360a01b6064820152608401610acb565b6099828154811061113157634e487b7160e01b600052603260045260246000fd5b90600052602060002001549050919050565b6000306001600160a01b037f000000000000000000000000000000000000000000000000000000000000000016146111e35760405162461bcd60e51b815260206004820152603860248201527f555550535570677261646561626c653a206d757374206e6f742062652063616c60448201527f6c6564207468726f7567682064656c656761746563616c6c00000000000000006064820152608401610acb565b50600080516020613e9783398151915290565b6000818152606760205260408120546001600160a01b0316806109975760405162461bcd60e51b8152602060048201526018602482015277115490cdcc8c4e881a5b9d985b1a59081d1bdad95b88125160421b6044820152606401610acb565b60006001600160a01b0382166112c05760405162461bcd60e51b815260206004820152602960248201527f4552433732313a2061646472657373207a65726f206973206e6f7420612076616044820152683634b21037bbb732b960b91b6064820152608401610acb565b506001600160a01b031660009081526068602052604090205490565b600054610100900460ff16158080156112fc5750600054600160ff909116105b806113165750303b158015611316575060005460ff166001145b6113795760405162461bcd60e51b815260206004820152602e60248201527f496e697469616c697a61626c653a20636f6e747261637420697320616c72656160448201526d191e481a5b9a5d1a585b1a5e995960921b6064820152608401610acb565b6000805460ff19166001179055801561139c576000805461ff0019166101001790555b6113e160405180604001604052806008815260200167109bdbdcdd13919560c21b81525060405180604001604052806003815260200162212a2760e91b815250611e19565b6113e9611e4a565b6113f1611e4a565b6113f9611e73565b611401611e4a565b611409611e4a565b611411611e4a565b61141c600033611bd4565b611434600080516020613eb783398151915233611bd4565b61144c600080516020613efe83398151915233611bd4565b6114767f189ab7a9244df0848122154315af71fe140f3db0fe014031783b0946b8c9d2e333611bd4565b6040805160a0810182526000808252602082018190529181018290526060810182905260808101919091526114b090610228906005613486565b5061022e805460ff191690558015610e9b576000805461ff0019169055604051600181527f7f26b83ff96e1f2b6a682f133852f6798a09c465da95921460cefb38474024989060200160405180910390a150565b600080516020613eb783398151915261151c816118eb565b610e9b611ea2565b600082815261015f6020526040812061153d9083611edf565b9392505050565b600091825261012d602090815260408084206001600160a01b0393909316845291905290205460ff1690565b6060606680546109ac90613da9565b600061022861158f600184613d4f565b600581106115ad57634e487b7160e01b600052603260045260246000fd5b015434116115f75760405162461bcd60e51b81526020600482015260176024820152762cb7ba9036bab9ba103830bc9032b737bab3b41021272160491b6044820152606401610acb565b60006116038484611eeb565b949350505050565b610dba33838361205b565b606061162182610f4b565b34116116695760405162461bcd60e51b81526020600482015260176024820152762cb7ba9036bab9ba103830bc9032b737bab3b41021272160491b6044820152606401610acb565b6000825167ffffffffffffffff81111561169357634e487b7160e01b600052604160045260246000fd5b6040519080825280602002602001820160405280156116bc578160200160208202803683370190505b50905060005b8351811015611739576116fc858583815181106116ef57634e487b7160e01b600052603260045260246000fd5b6020026020010151611eeb565b82828151811061171c57634e487b7160e01b600052603260045260246000fd5b60209081029190910101528061173181613de4565b9150506116c2565b509392505050565b61174b33836119e7565b6117675760405162461bcd60e51b8152600401610acb90613afb565b6117738484848461212a565b50505050565b61022d818154811061178a57600080fd5b6000918252602090912001546001600160a01b0316905081565b60606109978261215d565b600081815261015f6020526040812061099790612259565b600082815261012d60205260409020600101546117e3816118eb565b610b6c8383611bf7565b61022881600581106117fe57600080fd5b0154905081565b600080516020613eb783398151915261181d816118eb565b5061022d80546001810182556000919091527fcbe5eb94ee31c6183f3d82fc7ed725908f7d7e2da0ee28e8d5e09973be5efd3d0180546001600160a01b0319166001600160a01b0392909216919091179055565b6000805b61022d548110156118e257826001600160a01b031661022d82815481106118ac57634e487b7160e01b600052603260045260246000fd5b6000918252602090912001546001600160a01b031614156118d05750600192915050565b806118da81613de4565b915050611875565b50600092915050565b610e9b8133612263565b60006001600160e01b03198216635a05180f60e01b14806109975750610997826122bc565b6000818152606760205260409020546001600160a01b0316610e9b5760405162461bcd60e51b8152602060048201526018602482015277115490cdcc8c4e881a5b9d985b1a59081d1bdad95b88125160421b6044820152606401610acb565b600081815260696020526040902080546001600160a01b0319166001600160a01b03841690811790915581906119ae826111f6565b6001600160a01b03167f8c5be1e5ebec7d5bd14f71427d1e84f3dd0314c0f7b2291e5b200ac8c7c3b92560405160405180910390a45050565b6000806119f3836111f6565b9050806001600160a01b0316846001600160a01b03161480611a3a57506001600160a01b038082166000908152606a602090815260408083209388168352929052205460ff165b806116035750836001600160a01b0316611a5384610a2f565b6001600160a01b031614949350505050565b826001600160a01b0316611a78826111f6565b6001600160a01b031614611a9e5760405162461bcd60e51b8152600401610acb90613b9a565b6001600160a01b038216611b005760405162461bcd60e51b8152602060048201526024808201527f4552433732313a207472616e7366657220746f20746865207a65726f206164646044820152637265737360e01b6064820152608401610acb565b611b0b8383836122e1565b826001600160a01b0316611b1e826111f6565b6001600160a01b031614611b445760405162461bcd60e51b8152600401610acb90613b9a565b600081815260696020908152604080832080546001600160a01b03199081169091556001600160a01b0387811680865260688552838620805460001901905590871680865283862080546001019055868652606790945282852080549092168417909155905184937fddf252ad1be2c89b69c2b068fc378daa952ba7f163c4a11628f55a4df523b3ef91a4505050565b611bde82826122f4565b600082815261015f60205260409020610b6c908261237b565b611c018282612390565b600082815261015f60205260409020610b6c90826123f8565b7f189ab7a9244df0848122154315af71fe140f3db0fe014031783b0946b8c9d2e3610dba816118eb565b7f4910fdfa16fed3260ed0e7147f7cc6da11a60208b5b9406d12a635614ffd91435460ff1615611c7757610b6c8361240d565b826001600160a01b03166352d1902d6040518163ffffffff1660e01b815260040160206040518083038186803b158015611cb057600080fd5b505afa925050508015611ce0575060408051601f3d908101601f19168201909252611cdd918101906138bf565b60015b611d435760405162461bcd60e51b815260206004820152602e60248201527f45524331393637557067726164653a206e657720696d706c656d656e7461746960448201526d6f6e206973206e6f74205555505360901b6064820152608401610acb565b600080516020613e978339815191528114611db25760405162461bcd60e51b815260206004820152602960248201527f45524331393637557067726164653a20756e737570706f727465642070726f786044820152681a58589b195555525160ba1b6064820152608401610acb565b50610b6c8383836124a9565b611dc66124ce565b60fb805460ff191690557f5db9ee0a495bf2e6ff9c91a7834c1ba4fdd244a5e8aa4e537bd38aeae4b073aa335b6040516001600160a01b03909116815260200160405180910390a1565b610e9b81612517565b600054610100900460ff16611e405760405162461bcd60e51b8152600401610acb90613c77565b610dba8282612557565b600054610100900460ff16611e715760405162461bcd60e51b8152600401610acb90613c77565b565b600054610100900460ff16611e9a5760405162461bcd60e51b8152600401610acb90613c77565b611e716125a5565b611eaa6125d8565b60fb805460ff191660011790557f62e78cea01bee320cd4e420270b5ea74000d11b0c9f74754ebdbfc544b05a258611df33390565b600061153d838361261e565b61022e54600090339060ff161580611f15575061022e5460ff168015611f155750611f1581611871565b611f615760405162461bcd60e51b815260206004820152601960248201527f746869732066756e636974696f6e206973206c6f636b65642e000000000000006044820152606401610acb565b6000611f6d6102275490565b9050611f7e61022780546001019055565b611f888582612656565b611f9a81611f9583612670565b612713565b600080611fa6836127ad565b905060048160ff161015611fb957600691505b60088160ff161015611fce5760059150612012565b60108160ff161015611fe35760049150612012565b60208160ff161015611ff85760039150612012565b60408160ff16101561200d5760029150612012565b600191505b50600082815261022f602052604090208054600180830188905560ff1960ff90941661010002841661ffff19909216919091171781556002018054909116905591505092915050565b816001600160a01b0316836001600160a01b031614156120bd5760405162461bcd60e51b815260206004820152601960248201527f4552433732313a20617070726f766520746f2063616c6c6572000000000000006044820152606401610acb565b6001600160a01b038381166000818152606a6020908152604080832094871680845294825291829020805460ff191686151590811790915591519182527f17307eab39ab6107e8899845ad3d59bd9653f200f220920489ca2b5937696c31910160405180910390a3505050565b612135848484611a65565b612141848484846127f2565b6117735760405162461bcd60e51b8152600401610acb90613b48565b60606121688261191a565b600082815260c960205260408120805461218190613da9565b80601f01602080910402602001604051908101604052809291908181526020018280546121ad90613da9565b80156121fa5780601f106121cf576101008083540402835291602001916121fa565b820191906000526020600020905b8154815290600101906020018083116121dd57829003601f168201915b50505050509050600061220b6128ff565b905080516000141561221e575092915050565b8151156122505780826040516020016122389291906139c3565b60405160208183030381529060405292505050919050565b6116038461291f565b6000610997825490565b61226d8282611544565b610dba5761227a81612985565b612285836020612997565b6040516020016122969291906139f2565b60408051601f198184030181529082905262461bcd60e51b8252610acb91600401613ae8565b60006001600160e01b03198216637965db0b60e01b1480610997575061099782612b79565b6122e96125d8565b610b6c838383612b9e565b6122fe8282611544565b610dba57600082815261012d602090815260408083206001600160a01b03851684529091529020805460ff191660011790556123373390565b6001600160a01b0316816001600160a01b0316837f2f8788117e7eff1d82e926ec794901d17c78024a50270940304540a733656f0d60405160405180910390a45050565b600061153d836001600160a01b038416612c56565b61239a8282611544565b15610dba57600082815261012d602090815260408083206001600160a01b0385168085529252808320805460ff1916905551339285917ff6391f5c32d9c69d2a47ea670b442974b53935d1edc7fd64eb21e047a839171b9190a45050565b600061153d836001600160a01b038416612ca5565b6001600160a01b0381163b61247a5760405162461bcd60e51b815260206004820152602d60248201527f455243313936373a206e657720696d706c656d656e746174696f6e206973206e60448201526c1bdd08184818dbdb9d1c9858dd609a1b6064820152608401610acb565b600080516020613e9783398151915280546001600160a01b0319166001600160a01b0392909216919091179055565b6124b283612dc2565b6000825111806124bf5750805b15610b6c576117738383612e02565b60fb5460ff16611e715760405162461bcd60e51b815260206004820152601460248201527314185d5cd8589b194e881b9bdd081c185d5cd95960621b6044820152606401610acb565b61252081612ef6565b600081815260c960205260409020805461253990613da9565b159050610e9b57600081815260c960205260408120610e9b916134c9565b600054610100900460ff1661257e5760405162461bcd60e51b8152600401610acb90613c77565b8151612591906065906020850190613503565b508051610b6c906066906020840190613503565b600054610100900460ff166125cc5760405162461bcd60e51b8152600401610acb90613c77565b60fb805460ff19169055565b60fb5460ff1615611e715760405162461bcd60e51b815260206004820152601060248201526f14185d5cd8589b194e881c185d5cd95960821b6044820152606401610acb565b600082600001828154811061264357634e487b7160e01b600052603260045260246000fd5b9060005260206000200154905092915050565b610dba828260405180602001604052806000815250612f97565b6060600061267d83612fca565b600101905060008167ffffffffffffffff8111156126ab57634e487b7160e01b600052604160045260246000fd5b6040519080825280601f01601f1916602001820160405280156126d5576020820181803683370190505b5090508181016020015b600019016f181899199a1a9b1b9c1cb0b131b232b360811b600a86061a8153600a850494508461270e57611739565b6126df565b6000828152606760205260409020546001600160a01b031661278e5760405162461bcd60e51b815260206004820152602e60248201527f45524337323155524953746f726167653a2055524920736574206f66206e6f6e60448201526d32bc34b9ba32b73a103a37b5b2b760911b6064820152608401610acb565b600082815260c9602090815260409091208251610b6c92840190613503565b6040805144602082015242918101919091526060810182905260009060fb906080016040516020818303038152906040528051906020012060001c6109979190613dff565b60006001600160a01b0384163b156128f457604051630a85bd0160e11b81526001600160a01b0385169063150b7a0290612836903390899088908890600401613a67565b602060405180830381600087803b15801561285057600080fd5b505af1925050508015612880575060408051601f3d908101601f1916820190925261287d91810190613936565b60015b6128da573d8080156128ae576040519150601f19603f3d011682016040523d82523d6000602084013e6128b3565b606091505b5080516128d25760405162461bcd60e51b8152600401610acb90613b48565b805181602001fd5b6001600160e01b031916630a85bd0160e11b149050611603565b506001949350505050565b6060604051806060016040528060358152602001613e6260359139905090565b606061292a8261191a565b60006129346128ff565b90506000815111612954576040518060200160405280600081525061153d565b8061295e84612670565b60405160200161296f9291906139c3565b6040516020818303038152906040529392505050565b60606109976001600160a01b03831660145b606060006129a6836002613d30565b6129b1906002613cf3565b67ffffffffffffffff8111156129d757634e487b7160e01b600052604160045260246000fd5b6040519080825280601f01601f191660200182016040528015612a01576020820181803683370190505b509050600360fc1b81600081518110612a2a57634e487b7160e01b600052603260045260246000fd5b60200101906001600160f81b031916908160001a905350600f60fb1b81600181518110612a6757634e487b7160e01b600052603260045260246000fd5b60200101906001600160f81b031916908160001a9053506000612a8b846002613d30565b612a96906001613cf3565b90505b6001811115612b2a576f181899199a1a9b1b9c1cb0b131b232b360811b85600f1660108110612ad857634e487b7160e01b600052603260045260246000fd5b1a60f81b828281518110612afc57634e487b7160e01b600052603260045260246000fd5b60200101906001600160f81b031916908160001a90535060049490941c93612b2381613d92565b9050612a99565b50831561153d5760405162461bcd60e51b815260206004820181905260248201527f537472696e67733a20686578206c656e67746820696e73756666696369656e746044820152606401610acb565b60006001600160e01b0319821663780e9d6360e01b14806109975750610997826130a2565b6001600160a01b038316612bf957612bf481609980546000838152609a60205260408120829055600182018355919091527f72a152ddfb8e864297c917af52ea6c1c68aead0fee1a62673fcc7e0c94979d000155565b612c1c565b816001600160a01b0316836001600160a01b031614612c1c57612c1c83826130f2565b6001600160a01b038216612c3357610b6c8161318f565b826001600160a01b0316826001600160a01b031614610b6c57610b6c8282613268565b6000818152600183016020526040812054612c9d57508154600181810184556000848152602080822090930184905584548482528286019093526040902091909155610997565b506000610997565b60008181526001830160205260408120548015612db8576000612cc9600183613d4f565b8554909150600090612cdd90600190613d4f565b9050818114612d5e576000866000018281548110612d0b57634e487b7160e01b600052603260045260246000fd5b9060005260206000200154905080876000018481548110612d3c57634e487b7160e01b600052603260045260246000fd5b6000918252602080832090910192909255918252600188019052604090208390555b8554869080612d7d57634e487b7160e01b600052603160045260246000fd5b600190038181906000526020600020016000905590558560010160008681526020019081526020016000206000905560019350505050610997565b6000915050610997565b612dcb8161240d565b6040516001600160a01b038216907fbc7cd75a20ee27fd9adebab32041f755214dbc6bffa90cc0225b39da2e5c2d3b90600090a250565b60606001600160a01b0383163b612e6a5760405162461bcd60e51b815260206004820152602660248201527f416464726573733a2064656c65676174652063616c6c20746f206e6f6e2d636f6044820152651b9d1c9858dd60d21b6064820152608401610acb565b600080846001600160a01b031684604051612e8591906139a7565b600060405180830381855af49150503d8060008114612ec0576040519150601f19603f3d011682016040523d82523d6000602084013e612ec5565b606091505b5091509150612eed8282604051806060016040528060278152602001613ed7602791396132ac565b95945050505050565b6000612f01826111f6565b9050612f0f816000846122e1565b612f18826111f6565b600083815260696020908152604080832080546001600160a01b03199081169091556001600160a01b0385168085526068845282852080546000190190558785526067909352818420805490911690555192935084927fddf252ad1be2c89b69c2b068fc378daa952ba7f163c4a11628f55a4df523b3ef908390a45050565b612fa183836132c5565b612fae60008484846127f2565b610b6c5760405162461bcd60e51b8152600401610acb90613b48565b60008072184f03e93ff9f4daa797ed6e38ed64bf6a1f0160401b83106130095772184f03e93ff9f4daa797ed6e38ed64bf6a1f0160401b830492506040015b6d04ee2d6d415b85acef81000000008310613035576d04ee2d6d415b85acef8100000000830492506020015b662386f26fc10000831061305357662386f26fc10000830492506010015b6305f5e100831061306b576305f5e100830492506008015b612710831061307f57612710830492506004015b60648310613091576064830492506002015b600a83106109975760010192915050565b60006001600160e01b031982166380ac58cd60e01b14806130d357506001600160e01b03198216635b5e139f60e01b145b8061099757506301ffc9a760e01b6001600160e01b0319831614610997565b600060016130ff84611256565b6131099190613d4f565b60008381526098602052604090205490915080821461315c576001600160a01b03841660009081526097602090815260408083208584528252808320548484528184208190558352609890915290208190555b5060009182526098602090815260408084208490556001600160a01b039094168352609781528383209183525290812055565b6099546000906131a190600190613d4f565b6000838152609a6020526040812054609980549394509092849081106131d757634e487b7160e01b600052603260045260246000fd5b90600052602060002001549050806099838154811061320657634e487b7160e01b600052603260045260246000fd5b6000918252602080832090910192909255828152609a9091526040808220849055858252812055609980548061324c57634e487b7160e01b600052603160045260246000fd5b6001900381819060005260206000200160009055905550505050565b600061327383611256565b6001600160a01b039093166000908152609760209081526040808320868452825280832085905593825260989052919091209190915550565b606083156132bb57508161153d565b61153d838361345c565b6001600160a01b03821661331b5760405162461bcd60e51b815260206004820181905260248201527f4552433732313a206d696e7420746f20746865207a65726f20616464726573736044820152606401610acb565b6000818152606760205260409020546001600160a01b0316156133805760405162461bcd60e51b815260206004820152601c60248201527f4552433732313a20746f6b656e20616c7265616479206d696e746564000000006044820152606401610acb565b61338c600083836122e1565b6000818152606760205260409020546001600160a01b0316156133f15760405162461bcd60e51b815260206004820152601c60248201527f4552433732313a20746f6b656e20616c7265616479206d696e746564000000006044820152606401610acb565b6001600160a01b038216600081815260686020908152604080832080546001019055848352606790915280822080546001600160a01b0319168417905551839291907fddf252ad1be2c89b69c2b068fc378daa952ba7f163c4a11628f55a4df523b3ef908290a45050565b81511561346c5781518083602001fd5b8060405162461bcd60e51b8152600401610acb9190613ae8565b82600581019282156134b9579160200282015b828111156134b9578251829060ff16905591602001919060010190613499565b506134c5929150613577565b5090565b5080546134d590613da9565b6000825580601f106134e5575050565b601f016020900490600052602060002090810190610e9b9190613577565b82805461350f90613da9565b90600052602060002090601f01602090048101928261353157600085556134b9565b82601f1061354a57805160ff19168380011785556134b9565b828001600101855582156134b9579182015b828111156134b957825182559160200191906001019061355c565b5b808211156134c55760008155600101613578565b80356001600160a01b03811681146135a357600080fd5b919050565b600082601f8301126135b8578081fd5b8135602067ffffffffffffffff8211156135d4576135d4613e35565b8160051b6135e3828201613cc2565b8381528281019086840183880185018910156135fd578687fd5b8693505b8584101561361f578035835260019390930192918401918401613601565b50979650505050505050565b600082601f83011261363b578081fd5b813567ffffffffffffffff81111561365557613655613e35565b613668601f8201601f1916602001613cc2565b81815284602083860101111561367c578283fd5b816020850160208301379081016020019190915292915050565b6000602082840312156136a7578081fd5b61153d8261358c565b600080604083850312156136c2578081fd5b6136cb8361358c565b91506136d96020840161358c565b90509250929050565b6000806000606084860312156136f6578081fd5b6136ff8461358c565b925061370d6020850161358c565b9150604084013590509250925092565b60008060008060808587031215613732578081fd5b61373b8561358c565b93506137496020860161358c565b925060408501359150606085013567ffffffffffffffff81111561376b578182fd5b6137778782880161362b565b91505092959194509250565b60008060408385031215613795578182fd5b61379e8361358c565b9150602083013567ffffffffffffffff8111156137b9578182fd5b6137c5858286016135a8565b9150509250929050565b600080604083850312156137e1578182fd5b6137ea8361358c565b9150602083013580151581146137fe578182fd5b809150509250929050565b6000806040838503121561381b578182fd5b6138248361358c565b9150602083013567ffffffffffffffff81111561383f578182fd5b6137c58582860161362b565b6000806040838503121561385d578182fd5b6138668361358c565b946020939093013593505050565b600060208284031215613885578081fd5b813567ffffffffffffffff81111561389b578182fd5b611603848285016135a8565b6000602082840312156138b8578081fd5b5035919050565b6000602082840312156138d0578081fd5b5051919050565b600080604083850312156138e9578182fd5b823591506136d96020840161358c565b6000806040838503121561390b578182fd5b50508035926020909101359150565b60006020828403121561392b578081fd5b813561153d81613e4b565b600060208284031215613947578081fd5b815161153d81613e4b565b60008060408385031215613964578182fd5b82359150602083013560ff811681146137fe578182fd5b60008151808452613993816020860160208601613d66565b601f01601f19169290920160200192915050565b600082516139b9818460208701613d66565b9190910192915050565b600083516139d5818460208801613d66565b8351908301906139e9818360208801613d66565b01949350505050565b7f416363657373436f6e74726f6c3a206163636f756e7420000000000000000000815260008351613a2a816017850160208801613d66565b7001034b99036b4b9b9b4b733903937b6329607d1b6017918401918201528351613a5b816028840160208801613d66565b01602801949350505050565b6001600160a01b0385811682528416602082015260408101839052608060608201819052600090613a9a9083018461397b565b9695505050505050565b6020808252825182820181905260009190848201906040850190845b81811015613adc57835183529284019291840191600101613ac0565b50909695505050505050565b60208152600061153d602083018461397b565b6020808252602d908201527f4552433732313a2063616c6c6572206973206e6f7420746f6b656e206f776e6560408201526c1c881bdc88185c1c1c9bdd9959609a1b606082015260800190565b60208082526032908201527f4552433732313a207472616e7366657220746f206e6f6e20455243373231526560408201527131b2b4bb32b91034b6b83632b6b2b73a32b960711b606082015260800190565b60208082526025908201527f4552433732313a207472616e736665722066726f6d20696e636f72726563742060408201526437bbb732b960d91b606082015260800190565b6020808252602c908201527f46756e6374696f6e206d7573742062652063616c6c6564207468726f7567682060408201526b19195b1959d85d1958d85b1b60a21b606082015260800190565b6020808252602c908201527f46756e6374696f6e206d7573742062652063616c6c6564207468726f7567682060408201526b6163746976652070726f787960a01b606082015260800190565b6020808252602b908201527f496e697469616c697a61626c653a20636f6e7472616374206973206e6f74206960408201526a6e697469616c697a696e6760a81b606082015260800190565b604051601f8201601f1916810167ffffffffffffffff81118282101715613ceb57613ceb613e35565b604052919050565b60008219821115613d0657613d06613e1f565b500190565b600060ff821660ff84168060ff03821115613d2857613d28613e1f565b019392505050565b6000816000190483118215151615613d4a57613d4a613e1f565b500290565b600082821015613d6157613d61613e1f565b500390565b60005b83811015613d81578181015183820152602001613d69565b838111156117735750506000910152565b600081613da157613da1613e1f565b506000190190565b600181811c90821680613dbd57607f821691505b60208210811415613dde57634e487b7160e01b600052602260045260246000fd5b50919050565b6000600019821415613df857613df8613e1f565b5060010190565b600082613e1a57634e487b7160e01b81526012600452602481fd5b500690565b634e487b7160e01b600052601160045260246000fd5b634e487b7160e01b600052604160045260246000fd5b6001600160e01b031981168114610e9b57600080fdfe68747470733a2f2f6c6f676f75742d74686574612e76657263656c2e6170702f6170692f7574696c732f6765744e6674446174612f360894a13ba1a3210667c828492db98dca3e2076cc3735a920a3ca505d382bbc65d7a28e3265b37a6474929f336521b332c1681b933f6cb9f3376673440d862a416464726573733a206c6f772d6c6576656c2064656c65676174652063616c6c206661696c65649f2df0fed2c77648de5860a4cc508cd0818c85b8b8a1ab4ceeef8d981c8956a6a2646970667358221220958ef1152b61ff465f005d3f1929135486967227be8cd18857246d90b82dcc3564736f6c63430008040033",
  "linkReferences": {},
  "deployedLinkReferences": {}
}